S00D00004E656F5F312E7372656365
S11300000C9470000C948D000C948D000C948D0055
S11300100C948D000C948D000C948D000C948D0028
S11300200C948D000C948D000C948D000C948D0018
S11300300C948D000C948D000C948D000C948D0008
S11300400C948D000C948D000C948D000C948D00F8
S11300500C948D000C948D000C948D000C948D00E8
S11300600C948D000C948D0005A84CCDB2D44EB9DF
S11300703836A9020C50B9918688083CA6AAAA2A47
S1130080BE000000803F08000000BE922449123EDA
S1130090ABAAAA2ABECDCCCC4C3E00000080BEAB9D
S11300A0AAAAAA3E00000000BF000000803F000092
S11300B0000000084178D3BB4387D1133D190E3C9F
S11300C0C3BD4282AD2B3E68EC8276BED98FE1A9D6
S11300D03E4C80EFFFBE01C4FF7F3F0000000000E4
S11300E011241FBECFEFD8E0DEBFCDBF11E0A0E0EA
S11300F0B1E0E4EEF8E202C005900D92A433B1073A
S1130100D9F721E0A4E3B1E001C01D92AC37B207F6
S1130110E1F70E94840F0C9470140C9400000F9368
S11301201F93CF93DF93EC018C01005E1F4F20E0FF
S113013030E040E05EE3688179818A819B810E949E
S1130140CB126993799389939993C017D10779F75F
S1130150DF91CF911F910F9108952F923F924F926B
S11301605F926F927F928F929F92AF92BF92CF9243
S1130170DF92EF92FF920F931F93CF93DF93CDB74C
S1130180DEB764970FB6F894DEBF0FBECDBF1C0177
S113019089829A82AB82BC82CD82DE82EF82F8862B
S11301A009871A872B873C874D875E876F87788BF3
S11301B089819A81AB81BC81898B9A8BAB8BBC8BF7
S11301C0CD80DE80EF80F88449845A846B847C84FB
S11301D08D849E84AF84B8889C01AD01C301B201B3
S11301E00E946710D1016D937D938D939C93139717
S11301F0A5019401C701B6010E946710F10164834F
S1130200758386839783A301920169897A898B898F
S11302109C890E946610D10118966D937D938D93ED
S11302209C931B97A5019401C701B6010E94661017
S1130230F1016487758786879787C10164960FB635
S1130240F894DEBF0FBECDBFDF91CF911F910F9108
S1130250FF90EF90DF90CF90BF90AF909F908F90E2
S11302607F906F905F904F903F902F900895EF9202
S1130270FF920F931F93CF93DF93EA017901F80163
S11302800081118122813381DC010D931D932D9313
S11302903C93139714961D921D921D921C921797CE
S11302A0008911892289338918960D931D932D9302
S11302B03C931B971C961D921D921D921C921F9796
S11302C00085118522853385DB010D931D932D93C4
S11302D03C93139714961D921D921D921C9217978E
S11302E0008D118D228D338D18960D931D932D93B2
S11302F03C931B971C961D921D921D921C921F9756
S11303004481558166817781488359836A837B83DD
S11303101C821D821E821F824489558966897789C1
S1130320488759876A877B871C861D861E861F8699
S11303304485558566857785D7014D935D936D9387
S11303407C93139714961D921D921D921C921797DD
S1130350448D558D668D778DF7014087518762876F
S113036073871C961D921D921D921C921F97DF91FC
S1130370CF911F910F91FF90EF9008952F923F928C
S11303804F925F926F927F928F929F92AF92BF92A1
S1130390CF92DF92EF92FF920F931F93CF93DF934D
S11303A0CDB7DEB760970FB6F894DEBF0FBECDBFF2
S11303B01B01369427942114310451F1682E792EAF
S11303C0412C512CF30180809180A280B380C480A1
S11303D0D580E680F78000851185228533854485A4
S11303E0558566857785CE0101960E94AD00FE0194
S11303F03196D30180E101900D928A95E1F7FFEFE8
S11304004F1A5F0A80E1680E711C42145304D1F63E
S113041060960FB6F894DEBF0FBECDBFDF91CF91CB
S11304201F910F91FF90EF90DF90CF90BF90AF900E
S11304309F908F907F906F905F904F903F902F9000
S113044008959C01369527952115310589F04FE0D3
S113045050E0880F991FB90161707727862B972B7D
S113046041505109369527952115310591F702C060
S11304704FE050E002C0880F991F4A95E2F70895B3
S11304808F929F92AF92BF92CF92DF92EF92FF92A0
S11304900F931F93CF93DF93082F192F5B014A010A
S11304A060FD67C080E090E00E9485110E94831285
S11304B028E132E741E35FE30E94DD100E944F111F
S11304C020E130E06901C61AD70AB694A794A114B2
S11304D0B10409F451C0C02FD12FEE24E394F12CC0
S11304E000E010E0C801880F991F0E9421020C2C23
S11304F002C0969587950A94E2F7FC01EE0FFF1F60
S1130500EE0FFF1FE80DF91D80819181A281B38157
S113051088839983AA83BB831C821D821E821F82C7
S1130520C7010E9421020C2C02C0969587950A945B
S1130530E2F7FC01EE0FFF1FEE0FFF1FE80DF91DA0
S113054080819181A281B38188879987AA87BB879B
S11305501C861D861E861F860F5F1F4F609682E0D5
S1130560E80EF11C0A151B0509F0BCCF80E090E0F1
S113057005C081E090E002C080E090E0DF91CF917F
S11305801F910F91FF90EF90DF90CF90BF90AF90AD
S11305909F908F9008952F923F924F925F926F9207
S11305A07F928F929F92AF92BF92CF92DF92EF92FF
S11305B0FF920F931F93CF93DF93CDB7DEB760976E
S11305C00FB6F894DEBF0FBECDBF3C0189829A827C
S11305D0AB82BC82CD82DE82EF82F88609871A87DD
S11305E02B873C874D875E876F87788B29A53AA533
S11305F04BA55CA56D817E818F8198850E946710D3
S11306001B012C012DA53EA54FA558A969857A8506
S11306108B859C850E9467104B015C0129A93AA92E
S11306204BA95CA96D857E858F8598890E9467108A
S11306306B017C012DA13EA14FA158A569817A814E
S11306408B819C810E946710F30160837183828394
S11306509383248235824682578280869186A2863D
S1130660B386C486D586E686F786C30160960FB640
S1130670F894DEBF0FBECDBFDF91CF911F910F91D4
S1130680FF90EF90DF90CF90BF90AF909F908F90AE
S11306907F906F905F904F903F902F9008954F926E
S11306A05F926F927F928F929F92AF92BF92CF92FE
S11306B0DF92EF92FF920F931F93CF93DF93CDB707
S11306C0DEB760970FB6F894DEBF0FBECDBF8C01C6
S11306D02B962CAD3DAD4EAD5FAD2B976FA178A59C
S11306E089A59AA50E9467102B013C012BA53CA566
S11306F04DA55EA52F966CAD7DAD8EAD9FAD2F97AC
S11307000E9467104B015C012FA538A949A95AA979
S113071063966CAD7DAD8EAD9FAD63970E946710FF
S113072069837A838B839C8367962CAD3DAD4EADF4
S11307305FAD67976BA97CA98DA99EA90E946710DC
S11307406D837E838F8398876B962CAD3DAD4EADC4
S11307505FAD6B976FA978AD89AD9AAD0E946710B4
S113076069877A878B879C876F962CAD3DAD4EAD9C
S11307705FAD6F976BAD7CAD8DAD9EAD0E94671084
S11307806D877E878F87988BA3962CAD3DAD4EAD3C
S11307905FADA39723966CAD7DAD8EAD9FAD2397D2
S11307A00E9467106B017C0127962CAD3DAD4EADC8
S11307B05FAD27976BA17CA18DA19EA10E946710BC
S11307C0D8016D937D938D939C931397F801448284
S11307D055826682778218968D929D92AD92BC92D4
S11307E01B9789819A81AB81BC8184879587A68771
S11307F0B7878D819E81AF81B885808B918BA28BC9
S1130800B38B89859A85AB85BC85848B958BA68BA8
S1130810B78B8D859E85AF85B889808F918FA28F88
S1130820B38FC48ED58EE68EF78EC80160960FB650
S1130830F894DEBF0FBECDBFDF91CF911F910F9112
S1130840FF90EF90DF90CF90BF90AF909F908F90EC
S11308507F906F905F904F9008952F923F924F92A8
S11308605F926F927F928F929F92AF92BF92CF923C
S1130870DF92EF92FF920F931F93CF93DF93CDB745
S1130880DEB760970FB6F894DEBF0FBECDBF3C0154
S113089089829A82AB82BC82CD82DE82EF82F88624
S11308A009871A872B873C874D875E876F87788BEC
S11308B029A53AA54BA55CA56D817E818F8198857C
S11308C00E9466101B012C012DA53EA54FA558A919
S11308D069857A858B859C850E9466104B015C0135
S11308E029A93AA94BA95CA96D857E858F8598892C
S11308F00E9466106B017C012DA13EA14FA158A559
S113090069817A818B819C810E946610F3016083E6
S113091071838283938324823582468257828086C0
S11309209186A286B386C486D586E686F786C301F9
S113093060960FB6F894DEBF0FBECDBFDF91CF91A6
S11309401F910F91FF90EF90DF90CF90BF90AF90E9
S11309509F908F907F906F905F904F903F902F90DB
S113096008952F923F924F925F926F927F928F924F
S11309709F92AF92BF92CF92DF92EF92FF920F932A
S11309801F93CF93DF93CDB7DEB7AA970FB6F89432
S1130990DEBF0FBECDBF9E8F8D8FCB012DB73EB76F
S11309A03AA729A7FA01F695E795FC8BEB8BBA01D8
S11309B0660F771F0E948913CF0182959295907FCD
S11309C09827807F9827869F9001879F300D969F58
S11309D0300D11244DB75EB7421B530B0FB6F8947C
S11309E05EBF0FBE4DBFEDB7FEB73196FE8BED8BEC
S11309F06115710509F412C12B893C89220F331F3B
S1130A0022953295307F3227207F32273CA32BA3B7
S1130A104D8D5E8D5AA349A32B893C892F5F3F4F8F
S1130A20F901E295F295F07FFE27E07FFE27FEA311
S1130A30EDA378A76FA39A8F898F1C8E1B8E18A2A3
S1130A401F8E212C6894332434F8E1C049A05AA0A5
S1130A50612C722C198A2A8AAD89BE89A60DB71D0C
S1130A60F201832D01900D928A95E1F7ED8DFE8DB3
S1130A70E60DF71D2B8D3C8D2E0F3F1F388F2F8BCE
S1130A80498D5A8DE40FF51F8DB79EB740970FB669
S1130A90F8949EBF0FBE8DBFADB7BEB71196832D20
S1130AA001900D928A95E1F7F20180809180A280F5
S1130AB0B380C480D580E680F780008511852285C7
S1130AC033854485558566857785CE0101960E94D8
S1130AD0CB02FE013196AF89B88D832D01900D9222
S1130AE08A95E1F729893A892F5F3F4F3A8B298B01
S1130AF030E1430E511C40E1640E711C8DB79EB76A
S1130B0040960FB6F8949EBF0FBE8DBFEB89FC894B
S1130B1029893A89E217F30709F09ECF4D8C5E8C40
S1130B20498D5A8D440E551E612C722CC301829539
S1130B309295907F9827807F9827ED89FE898E0F64
S1130B409F1F2DB73EB7205131090FB6F8943EBF11
S1130B500FBE2DBFADB7BEB71196F201232D019084
S1130B600D922A95E1F7FC0180809180A280B380E8
S1130B70C480D580E680F780008511852285338581
S1130B804485558566857785CE0101960E942D049E
S1130B90FE013196D201832D01900D928A95E1F7E1
S1130BA0FFEF6F1A7F0A20E1420E511C4DB75EB76A
S1130BB0405F5F4F0FB6F8945EBF0FBE4DBF8B8989
S1130BC09C898615970509F0B1CFEF8DF8A1319670
S1130BD0F8A3EF8F29A13AA14BA15CA1240F351FE3
S1130BE03AA329A38B8D9C8DEDA1FEA18E0F9F1F8F
S1130BF09C8F8B8F298D3A8D240F351F3A8F298F27
S1130C004F8D58A18FA198A54817590739F0EB8942
S1130C10FC891E161F060CF419CFD7CF29A53AA5B7
S1130C200FB6F8943EBF0FBE2DBFAA960FB6F89428
S1130C30DEBF0FBECDBFDF91CF911F910F91FF900B
S1130C40EF90DF90CF90BF90AF909F908F907F9068
S1130C506F905F904F903F902F9008956F927F9286
S1130C608F929F92AF92BF92CF92DF92EF92FF92B8
S1130C700F931F93CF93DF93CDB7DEB7E0970FB6F3
S1130C80F894DEBF0FBECDBF3C0189A29AA2ABA2ED
S1130C90BCA2CDA2DEA2EFA2F8A609A71AA72BA791
S1130CA03CA74DA75EA76FA778AB8DB79EB74097BB
S1130CB00FB6F8949EBF0FBE8DBFADB7BEB71196E9
S1130CC080E1FE01B19601900D928A95E1F722969A
S1130CD08FAC229723969FAC23972496AFAC24978E
S1130CE02596BFAC25972696CFAC26972796DFACE2
S1130CF027972896EFAC28972996FFAC29972A9630
S1130D000FAD2A972B961FAD2B972C962FAD2C97B2
S1130D102D963FAD2D972E964FAD2E972F965FAD06
S1130D202F9760966FAD609761967FAD6197CE0106
S1130D3001960E94CB028DB79EB740970FB6F894E8
S1130D409EBF0FBE8DBFADB7BEB7119680E1FE0149
S1130D50EF5BFF4F01900D928A95E1F789A09AA06D
S1130D60ABA0BCA0CDA0DEA0EFA0F8A409A51AA555
S1130D702BA53CA54DA55EA56FA578A9CE014196EE
S1130D800E942D0488E0FE013196D30101900D925A
S1130D908A95E1F788E0FE013996D301189601900F
S1130DA00D928A95E1F788E0FE017196D301509681
S1130DB001900D928A95E1F788E0FE017996D301BE
S1130DC0589601900D928A95E1F70FB6F894DEBF1C
S1130DD00FBECDBFC301E0960FB6F894DEBF0FBEC1
S1130DE0CDBFDF91CF911F910F91FF90EF90DF90D6
S1130DF0CF90BF90AF909F908F907F906F90089509
S1130E004F925F926F927F928F929F92AF92BF9216
S1130E10CF92DF92EF92FF920F931F93CF93DF93C2
S1130E20CDB7DEB760970FB6F894DEBF0FBECDBF67
S1130E308C012B962CAD3DAD4EAD5FAD2B976FA1C4
S1130E4078A589A59AA50E9466102B013C012F96CE
S1130E502CAD3DAD4EAD5FAD2F976BA57CA58DA59B
S1130E609EA50E9466104B015C0163962CAD3DADBE
S1130E704EAD5FAD63976FA578A989A99AA90E9421
S1130E80661069837A838B839C8367962CAD3DAD12
S1130E904EAD5FAD67976BA97CA98DA99EA90E94F1
S1130EA066106D837E838F8398876B962CAD3DADE2
S1130EB04EAD5FAD6B976FA978AD89AD9AAD0E94C9
S1130EC0661069877A878B879C876F962CAD3DADBA
S1130ED04EAD5FAD6F976BAD7CAD8DAD9EAD0E9499
S1130EE066106D877E878F87988BA3962CAD3DAD5A
S1130EF04EAD5FADA39723966CAD7DAD8EAD9FAD2A
S1130F0023970E9466106B017C0127962CAD3DADA2
S1130F104EAD5FAD27976BA17CA18DA19EA10E94D0
S1130F206610D8016D937D938D939C931397F8016C
S1130F30448255826682778218968D929D92AD92F4
S1130F40BC921B9789819A81AB81BC8184879587E8
S1130F50A687B7878D819E81AF81B885808B918B61
S1130F60A28BB38B89859A85AB85BC85848B958B45
S1130F70A68BB78B8D859E85AF85B889808F918F21
S1130F80A28FB38FC48ED58EE68EF78EC80160967D
S1130F900FB6F894DEBF0FBECDBFDF91CF911F9186
S1130FA00F91FF90EF90DF90CF90BF90AF909F9004
S1130FB08F907F906F905F904F9008950F931F9341
S1130FC0CF93DF93CDB7DEB7C054D1090FB6F894F1
S1130FD0DEBF0FBECDBF8C018DB79EB780970FB615
S1130FE0F8949EBF0FBE8DBFADB7BEB7119680E219
S1130FF0FE01E959FF4F01900D928A95E1F78DB7F3
S11310009EB780970FB6F8949EBF0FBE8DBFADB745
S1131010BEB7119680E2FE01E95BFF4F01900D928D
S11310208A95E1F7CE0101960E944F038DB79EB7D2
S1131030805C9F4F0FB6F894DEBF0FBECDBF809784
S11310400FB6F8949EBF0FBE8DBFADB7BEB7119655
S113105080E2FE01E959FF4F01900D928A95E1F774
S11310608DB79EB780970FB6F8949EBF0FBE8DBF05
S1131070ADB7BEB7119680E2FE01E95BFF4F019068
S11310800D928A95E1F7CE0181960E94000788E0CF
S1131090FE013196D80101900D928A95E1F788E01E
S11310A0FE013996D801189601900D928A95E1F7C0
S11310B088E0FE017196D801509601900D928A95B0
S11310C0E1F788E0FE017996D801589601900D92D7
S11310D08A95E1F788E0FE01B196D80190960190D7
S11310E00D928A95E1F788E0FE01B996D8019896A9
S11310F001900D928A95E1F788E0FE01F196D801FE
S1131100D09601900D928A95E1F788E0FE01F99658
S1131110D801D89601900D928A95E1F70FB6F8940C
S1131120DEBF0FBECDBFC801C05CDF4F0FB6F89461
S1131130DEBF0FBECDBFDF91CF911F910F910895F8
S11311404F925F926F927F928F929F92AF92BF92D3
S1131150CF92DF92EF92FF920F931F93CF93DF937F
S1131160CDB7DEB7A0970FB6F894DEBF0FBECDBFE4
S113117029873A874B875C876D877E878F87988B13
S1131180A98ABA8ACB8ADC8AED8AFE8A0F8B188FE9
S113119089849A84AB84BC848D859E85AF85B88907
S11311A0898F9A8FAB8FBC8F49885A886B887C88CB
S11311B0CD88DE88EF88F88CA5019401C301B201C3
S11311C00E94CB126D8F7E8F8F8F98A3298D3A8DBD
S11311D04B8D5C8DC701B6010E94CB129B01AC0103
S11311E06D8D7E8D8F8D98A10E946610162F462FCF
S11311F0572F682F792F49835A836B837C83A501EA
S11312009401C701B6010E94CB126B017C01298DA8
S11312103A8D4B8D5C8DC301B2010E94CB129B01B0
S1131220AC01C701B6010E946710E62F462F572F65
S1131230682F792F4D835E836F837887212F3A81BE
S11312404B815C816E2F7E818F819885A0960FB62D
S1131250F894DEBF0FBECDBFDF91CF911F910F91E8
S1131260FF90EF90DF90CF90BF90AF909F908F90C2
S11312707F906F905F904F9008956F927F928F92BE
S11312809F92AF92BF92CF92DF92EF92FF920F9311
S11312901F93CF93DF93CDB7DEB768970FB6F8945B
S11312A0DEBF0FBECDBF3C0189869A86AB86BC8665
S11312B0CD86DE86EF86F88A098B1A8B2B8B3C8BC6
S11312C04D8B5E8B6F8B788F19821A821B821C82E6
S11312D080E090E0A0E8BFEB8D839E83AF83B88766
S11312E088E0FE013996D30101900D928A95E1F7C9
S11312F0A988BA88CB88DC88ED88FE880F89188D88
S113130029813A814B815C816D817E818F819885B1
S11313100E94A008F301208731874287538764879E
S1131320758786879787C30168960FB6F894DEBFE2
S11313300FBECDBFDF91CF911F910F91FF90EF9022
S1131340DF90CF90BF90AF909F908F907F906F90E1
S113135008958F929F92AF92BF92CF92DF92EF92B5
S1131360FF920F931F93CF93DF93CDB7DEB7A09770
S11313700FB6F894DEBF0FBECDBF4C0180E090E005
S1131380A0E8BFE389839A83AB83BC831D821E825A
S11313901F82188683EF94E0A5E3BFE389879A87C9
S11313A0AB87BC8783EF94E0A5E3BFEB8D879E8773
S11313B0AF87B88B198A1A8A1B8A1C8A40E050E0CE
S11313C060E87FEB4D8B5E8B6F8B788F898F9A8F64
S11313D0AB8FBC8F8D8F9E8FAF8FB8A3A12CBA809B
S11313E0CB80DC80E12CFE800F8118852FA538A9E5
S11313F049A95AA96BA97CA98DA99EA90E94A008F4
S1131400F401208331834283538364837583868309
S11314109783A984BA84CB84DC84ED84FE840F850D
S113142018892FA938AD49AD5AAD6BAD7CAD8DADE2
S11314309EAD0E94A008F40120873187428753871C
S11314406487758786879787A988BA88CB88DC885C
S1131450ED88FE880F89188D2FAD21963FAD219719
S113146022964FAD229723965FAD239724966FADB6
S1131470249725967FAD259726968FAD2697279698
S11314809FAD27970E94A008F401208B318B428BDB
S1131490538B648B758B868B978BA98CBA8CCB8C76
S11314A0DC8CED8CFE8C0F8D18A128962FAD28971F
S11314B029963FAD29972A964FAD2A972B965FAD73
S11314C02B972C966FAD2C972D967FAD2D972E963E
S11314D08FAD2E972F969FAD2F970E94A008F401F1
S11314E0208F318F428F538F648F758F868F978FA4
S11314F0C401A0960FB6F894DEBF0FBECDBFDF9136
S1131500CF911F910F91FF90EF90DF90CF90BF90FC
S1131510AF909F908F9008952F923F924F925F9239
S11315206F927F928F929F92AF92BF92CF92DF92EF
S1131530EF92FF920F931F93CF93DF93CDB7DEB754
S11315402D970FB6F894DEBF0FBECDBF61157105A0
S113155009F492C02B011C01612C712CCB01A0E079
S1131560B0E08A879B87AC87BD87B30180E090E0B9
S11315700E9485114B015C016A857B858C859D8564
S11315800E9485116B017C012BED3FE049E450E49E
S1131590C501B4010E94CB12A70196010E94DD107F
S11315A00E94D8106987462F572F682F792F4983B7
S11315B05A836B837C83C501B40190582BED3FE0C3
S11315C049E450E40E94CB12A70196010E94DD1069
S11315D00E943813262FC22ED72EE82EF92ECD8244
S11315E0DE82EF82F886430196948794880C991CD6
S11315F0880C991C880C991C880C991CC101880DB5
S1131600991D4301A1E08A229924880C991C880C15
S1131610991C880C991C880E991EF401A080B18035
S1131620C280D380E480F5800681178129853A81C0
S11316304B815C817E818F8198850E94A008D401B2
S11316402C9311963C93119712964C9312971396E0
S11316505C93139714966C93149715967C93159733
S113166016968C93169717969C93BFEF6B1A7B0A6A
S11316706414750409F079CF2D960FB6F894DEBF83
S11316800FBECDBFDF91CF911F910F91FF90EF90CF
S1131690DF90CF90BF90AF909F908F907F906F908E
S11316A05F904F903F902F9008952F923F924F92CA
S11316B05F926F927F928F929F92AF92BF92CF92DE
S11316C0DF92EF92FF920F931F93CF93DF9300D09B
S11316D000D0CDB7DEB76D968CAD9DADAEADBFADD0
S11316E06D9789839A83AB83BC8320E030E040E02C
S11316F05FE3698D7A8D8B8D9C8D0E94CB126B017B
S11317007C01DE0159961D0101E010E0F1014084E5
S113171051846284738484849584A684B7842FE678
S113172032E143E85AE3C301B2010E94761218166B
S113173054F02FE632E143E85AEBC301B2010E94B0
S1131740D3108823DCF4B801012E000C880B990B0C
S11317500E94871129813A814B815C810E94CB12BE
S11317600E94D810A30192010E94CB129B01AC01EC
S1131770C701B6010E9467106B017C012FE632E1BC
S113178043E85AE3C501B4010E947612181654F0D6
S11317902FE632E143E85AEBC501B4010E94D310AD
S11317A08823DCF4B801012E000C880B990B0E94ED
S11317B0871129813A814B815C810E94CB120E945E
S11317C03813A50194010E94CB129B01AC01C701FF
S11317D0B6010E9467106B017C010F5F1F4FF8E098
S11317E02F0E311C0830110509F090CFC701B60146
S11317F00F900F900F900F90DF91CF911F910F9149
S1131800FF90EF90DF90CF90BF90AF909F908F901C
S11318107F906F905F904F903F902F9008956F92BC
S11318207F928F929F92AF92BF92CF92DF92EF926C
S1131830FF920F931F93CF93DF93CDB7DEB7C05DB5
S1131840D1090FB6F894DEBF0FBECDBF3C018B01AA
S1131850CB010E948F009E012F5C3F4FAE014F5D74
S11318605F4FBE016F5E7F4FCE0101960E9437012C
S113187089809A80AB80BC80CD80DE80EF80F88444
S113188009851A852B853C854D855E856F8578890C
S1131890CE018F539F4F0E94AD0080E1FE01EF53B4
S11318A0FF4FDE01119601900D928A95E1F7898828
S11318B09A88AB88BC88CD88DE88EF88F88C098D3F
S11318C01A8D2B8D3C8D4D8D5E8D6F8D78A1CE0143
S11318D08F539F4F0E94AD0080E1FE01EF53FF4FF5
S11318E0DE01519601900D928A95E1F789A09AA0A4
S11318F0ABA0BCA0CDA0DEA0EFA0F8A409A51AA5BA
S11319002BA53CA54DA55EA56FA578A9CE018F5347
S11319109F4F0E94AD0080E1FE01EF53FF4FDE01B7
S1131920919601900D928A95E1F789A89AA8ABA89F
S1131930BCA8CDA8DEA8EFA8F8AC09AD1AAD2BADB4
S11319403CAD4DAD5EAD6FAD21967FAD2197CE011F
S11319508F539F4F0E94AD0080E1FE01EF53FF4F74
S1131960DE01D19601900D928A95E1F789889A88D3
S1131970AB88BC88CD88DE88EF88F88C098D1A8DF9
S11319802B8D3C8D4D8D5E8D6F8D78A1CE018F5743
S11319909F4F0E943D0989A89AA8ABA8BCA8CDA8CE
S11319A0DEA8EFA8F8AC09AD1AAD2BAD3CAD4DAD3A
S11319B05EAD6FAD21967FAD2197CE018F569F4FBF
S11319C00E943D098DB79EB740970FB6F8949EBF0D
S11319D00FBE8DBFADB7BEB7119680E1FE01EF57C4
S11319E0FF4F01900D928A95E1F789809A80AB8030
S11319F0BC80CD80DE80EF80F88409851A852B8534
S1131A003C854D855E856F857889CE018F5B9F4FC0
S1131A100E942E068DB79EB740970FB6F8949EBFCE
S1131A200FBE8DBFADB7BEB7119680E1FE01EF5674
S1131A30FF4F01900D928A95E1F789A09AA0ABA07F
S1131A40BCA0CDA0DEA0EFA0F8A409A51AA52BA5E3
S1131A503CA54DA55EA56FA578A9CE018F599F4FD2
S1131A600E942E068DB79EB780960FB6F894DEBFFF
S1131A700FBECDBF80970FB6F8949EBF0FBE8DBF2B
S1131A80ADB7BEB7119680E2FE01EF59FF4F01904A
S1131A900D928A95E1F7CE018F559F4F0E94A909B7
S1131AA08DB79EB780960FB6F894DEBF0FBECDBF3C
S1131AB080970FB6F8949EBF0FBE8DBFADB7BEB76B
S1131AC0119680E2FE01EF55FF4F01900D928A9529
S1131AD0E1F78DB79EB780970FB6F8949EBF0FBEFF
S1131AE08DBFADB7BEB7119680E2FE01EF5BFF4F2D
S1131AF001900D928A95E1F7C3010E94DE070FB6AB
S1131B00F894DEBF0FBECDBFC301C053DF4F0FB685
S1131B10F894DEBF0FBECDBFDF91CF911F910F911F
S1131B20FF90EF90DF90CF90BF90AF909F908F90F9
S1131B307F906F900895249A0895F894E6E3F1E075
S1131B406EE771E048E0DF0112979C9111963C9199
S1131B508081242F3323B4F42C9A00000000000069
S1131B600000000000000000000000000000000071
S1131B7000002C980000000000000000000000009D
S1131B80000012C02C9A00000000000000002C98F5
S1131B900000000000000000000000000000000041
S1131BA00000000000000000330F215099F6242F9C
S1131BB09923B4F42C9A00000000000000000000F7
S1131BC000000000000000000000000000002C984D
S1131BD0000000000000000000000000000012C02F
S1131BE02C9A00000000000000002C980000000067
S1131BF000000000000000000000000000000000E1
S1131C0000000000990F215099F6942F8823B4F412
S1131C102C9A0000000000000000000000000000FA
S1131C20000000000000000000002C9800000000EC
S1131C300000000000000000000012C02C9A000008
S1131C400000000000002C980000000000000000CC
S1131C500000000000000000000000000000000080
S1131C60880F915099F63396E617F70709F06BCF72
S1131C70789480E38A95F1F70895E6E3F1E02EE79E
S1131C8031E0DF0112976C9311967C938083339635
S1131C90E217F307B1F708952F923F924F925F92A4
S1131CA06F927F928F929F92AF92BF92CF92DF9268
S1131CB0EF92FF920F931F93CF93DF9300D000D046
S1131CC0CDB7DEB79A8389830F2EF4E32F2EF1E08C
S1131CD03F2EF02D4C016894AA24A2F8B12C64C0C4
S1131CE0F40160817181072E000C880B990B0E940E
S1131CF087116B017C01B5012B813C81621B730B45
S1131D00072E000C880B990B0E94871120E030E00D
S1131D1040E85EE30E94CB129B01AC01C701B6010F
S1131D200E94CB126B017C01F40162817381072E46
S1131D30000C880B990B0E9487112B013C012B810D
S1131D403C81B901330F880B990B0E94871120E065
S1131D5030E040E85EE30E94CB129B01AC01C3017A
S1131D60B2010E94CB129B01AC01C701B6010E94D3
S1131D7067100E945611F80160832B813C812F5F0C
S1131D803F4F3C832B830D5F1F4F2430310509F0F7
S1131D90A7CF3CE0230E311C82E0880E911C9CE707
S1131DA0291691E0390631F08101E12CF12CFC82F5
S1131DB0EB8296CFE981FA818485809379010F9033
S1131DC00F900F900F90DF91CF911F910F91FF9083
S1131DD0EF90DF90CF90BF90AF909F908F907F90C7
S1131DE06F905F904F903F902F9008958F929F92A5
S1131DF0AF92BF92CF92DF92EF92FF920F931F9315
S1131E00CF93DF93CDB7DEB7C054D1090FB6F894A2
S1131E10DEBF0FBECDBFBC01CE0101960E940F0CE8
S1131E200F2EF4E3AF2EF1E0BF2EF02D00E010E012
S1131E306894992496F888248A94B801012E000C99
S1131E40880B990B0E94871125E535E545E95EE38A
S1131E500E94CB129F938F937F936F932DB73EB7BE
S1131E60205431090FB6F8943EBF0FBE2DBFADB755
S1131E70BEB71196FE013196892D01900D928A9577
S1131E80E1F70E94550B0FB6F894DEBF0FBECDBF2D
S1131E906B017C0120E030E0A9010E947612181643
S1131EA0A4F420E030E04FE753E4C701B6010E94F8
S1131EB0D31088233CF4C701B6010E944F11F501E9
S1131EC0608305C0F501808202C0F50110820F5FB6
S1131ED01F4FF3E0AF0EB11C0831110509F0ADCF6F
S1131EE0C05CDF4F0FB6F894DEBF0FBECDBFDF91ED
S1131EF0CF911F910F91FF90EF90DF90CF90BF9003
S1131F00AF909F908F900895CF93DF93CDB7DEB7B6
S1131F10C059D1090FB6F894DEBF0FBECDBF0E94E1
S1131F209B0D80E1E4E0F1E0DE01119601900D9259
S1131F308A95E1F78E010F5E1F4F80E2F80111923E
S1131F408A95E9F780E090E0AFE7B3E489A39AA328
S1131F50ABA3BCA36AE070E080E00E943D0EC80120
S1131F600E94F60E85E090E00E9421029A83898304
S1131F7080E2E4E1F1E0DE01AF58BF4F01900D9241
S1131F808A95E1F7AE014F585F4F68E070E0CE01EB
S1131F90C1960E94400268E070E0CE01C1960E94A2
S1131FA0BE0162E070E081E390E08C0F9D1F4096DB
S1131FB00E948C0A62E070E081E390E08C0F9D1F28
S1131FC0C0960E948C0A42E050E068E070E0CE01C6
S1131FD0C1960E94B10464E070E081E390E08C0F4C
S1131FE09D1F80960E948C0A44E050E068E070E0F7
S1131FF0CE01C1960E94B10481E090E00E942102CA
S1132000BC0180E090E00E948511E5966CAF7DAF45
S11320108EAF9FAFE5970E949D0D4E01FDE28F0E9E
S1132020911C0F2EF2E3AF2EB12CF02D8E010F5E1A
S11320301F4FCE0101966C010E94FD13B5010E9451
S11320409D137C01BC01990F880B990B0E94871189
S1132050F80161937193819391938F01F601E19259
S1132060F1926F010815190539F729A53AA54BA571
S11320705CA569897A898B899C890E94671020E014
S113208030E040E05FE30E94CB126DA77EA78FA7EC
S113209098AB29813A818D859E85820F931F992360
S11320A00CF4019695958795988B8F87FFEF24E321
S11320B08CE0F15020408040E1F700C00000CE01E8
S11320C001960E944C0E0E949D0DB0CF5058BB2724
S11320D0AA270E947E100C9428120E94EF1138F057
S11320E00E94F61120F039F49F3F19F426F40C9461
S11320F0EC110EF4E095E7FB0C94E611E92F0E9435
S11321004D1258F3BA17620773078407950720F036
S113211079F4A6F50C946F120EF4E0950B2EBA2FF9
S1132120A02D0B01B90190010C01CA01A0011124D9
S1132130FF27591B99F0593F50F4503E68F11A1685
S1132140F040A22F232F342F4427585FF3CF469516
S113215037952795A795F0405395C9F77EF41F1638
S1132160BA0B620B730B840BBAF09150A1F0FF0F02
S1132170BB1F661F771F881FC2F70EC0BA0F621FEE
S1132180731F841F48F4879577956795B795F795DE
S11321909E3F08F0B0CF9395880F08F09927EE0F73
S11321A09795879508950E94C21108F481E00895D7
S11321B00E94FF11E3950C9439120E94F1100C94C3
S11321C028120E94F61158F00E94EF1140F029F4F1
S11321D05F3F29F00C94E61151110C9470120C9489
S11321E0EC110E944D1268F39923B1F3552391F336
S11321F0951B550BBB27AA2762177307840738F072
S11322009F5F5F4F220F331F441FAA1FA9F335D0CE
S11322100E2E3AF0E0E832D091505040E695001C82
S1132220CAF72BD0FE2F29D0660F771F881FBB1F3C
S1132230261737074807AB07B0E809F0BB0B802D1A
S1132240BF01FF2793585F4F3AF09E3F510578F046
S11322500C94E6110C9470125F3FE4F3983ED4F3AF
S1132260869577956795B795F7959F5FC9F7880F1A
S1132270911D9695879597F90895E1E0660F771F6C
S1132280881FBB1F621773078407BA0720F0621BFD
S1132290730B840BBA0BEE1F88F7E09508950E9428
S11322A056116894B1110C94701208950E9455123D
S11322B088F09F5798F0B92F9927B751B0F0E1F003
S11322C0660F771F881F991F1AF0BA95C9F714C0B3
S11322D0B13091F00E946F12B1E008950C946F1226
S11322E0672F782F8827B85F39F0B93FCCF38695EC
S11322F077956795B395D9F73EF490958095709549
S113230061957F4F8F4F9F4F0895E89409C097FBC5
S11323103EF490958095709561957F4F8F4F9F4FB8
S11323209923A9F0F92F96E9BB279395F6958795FC
S113233077956795B795F111F8CFFAF4BB0F11F4BF
S113234060FF1BC06F5F7F4F8F4F9F4F16C0882366
S113235011F096E911C0772321F09EE8872F762F9C
S113236005C0662371F096E8862F70E060E02AF0DD
S11323709A95660F771F881FDAF7880F96958795C9
S113238097F90895990F0008550FAA0BE0E8FEEF9E
S113239016161706E807F907C0F012161306E40725
S11323A0F50798F0621B730B840B950B39F40A261E
S11323B061F0232B242B252B21F408950A2609F4FC
S11323C0A140A6958FEF811D811D089597F99F6700
S11323D080E870E060E008959FEF80EC08950024A9
S11323E00A941616170618060906089500240A9476
S11323F0121613061406050608950C94EC110E9497
S11324005512D8F3E894E0E0BB279F57F0F02AED8B
S11324103FE049EC06C0EE0FBB0F661F771F881F15
S113242028F0B23A62077307840728F0B25A620BA5
S1132430730B840BE3959A9572F7803830F49A9570
S1132440BB0F661F771F881FD2F790480C94421366
S1132450092E0394000C11F4882352F0BB0F40F4AE
S1132460BF2B11F460FF04C06F5F7F4F8F4F9F4FEE
S11324700895EF93E0FF07C0A2EA2AED3FE049EC9C
S11324805FEB0E947E100E9428120F90039401FCBF
S11324909058E8E6F0E00C94751357FD9058440FFB
S11324A0551F59F05F3F71F04795880F97FB991FAF
S11324B061F09F3F79F0879508951216130614066C
S11324C0551FF2CF4695F1DF08C0161617061806F9
S11324D0991FF1CF86957105610508940895E894D4
S11324E0BB2766277727CB0197F908950E94C2116D
S11324F008F48FEF089516F00C9440130C94EC112B
S113250068940C94E6110E945512A8F39923C1F320
S1132510AEF3DF93CF931F930F93FF92C92FDD2761
S113252088232AF02197660F771F881FDAF720E0A7
S113253030E040E85FEB9FE3883920F0803E38F0DC
S113254021968F770E946710E6E8F0E004C00E94AD
S11325506710E3EBF0E00E944E138B01BE01EC0127
S1132560FB2E6F5771097595771F880B990B0E9485
S1132570871128E132E741E35FE30E94DE12AF2DC9
S11325809801AE01FF900F911F91CF91DF910E94AE
S11325907E100C9428120E94DE120C9428120E94C1
S11325A0EF1138F00E94F61120F0952311F00C94ED
S11325B0E6110C94EC1111240C9470120E944D122B
S11325C070F3959FC1F3950F50E0551F629FF00182
S11325D0729FBB27F00DB11D639FAA27F00DB11D9B
S11325E0AA1F649F6627B00DA11D661F829F222724
S11325F0B00DA11D621F739FB00DA11D621F839FAB
S1132600A00D611D221F749F3327A00D611D231F80
S1132610849F600D211D822F762F6A2F11249F57CE
S113262050409AF0F1F088234AF0EE0FFF1FBB1FD1
S1132630661F771F881F91505040A9F79E3F510590
S113264080F00C94E6110C9470125F3FE4F3983E12
S1132650D4F3869577956795B795F795E7959F5F3A
S1132660C1F7FE2B880F911D9695879597F90895CC
S11326709F930E94FF110F9007FCEE5F0C94391298
S11326809F3F31F0915020F4879577956795B795E2
S1132690880F911D9695879597F90895DF93CF93A9
S11326A01F930F93FF92EF92DF927B018C0168944A
S11326B006C0DA2EEF010E94DE12FE01E894A59115
S11326C02591359145915591A6F3EF010E947E1015
S11326D0FE019701A801DA9469F7DF90EF90FF906B
S11326E00F911F91CF91DF9108959F938F937F93C3
S11326F06F93FF93EF939B01AC010E94CB12EF9178
S1132700FF910E944E132F913F914F915F910C9432
S1132710CB12AA1BBB1B51E107C0AA1FBB1FA617E4
S1132720B70710F0A61BB70B881F991F5A95A9F776
S113273080959095BC01CD01089597FB072E16F462
S1132740009407D077FD09D00E94891307FC05D0B7
S11327503EF4909581959F4F0895709561957F4FB4
S113276008958F929F92AF92BF92CF92DF92EF9291
S1132770FF92CF93DF93EC01688179818A819B81F9
S1132780611571058105910521F464E279ED8BE50C
S113279097E02DE133EF41E050E00E940D14490130
S11327A05A019B01AC01A7EAB1E40E942C146B010D
S11327B07C01ACEEB4EFA50194010E943A14DC0153
S11327C0CB018C0D9D1DAE1DBF1DB7FF03C001972E
S11327D0A109B04888839983AA83BB839F77DF913B
S11327E0CF91FF90EF90DF90CF90BF90AF909F90EC
S11327F08F9008950E94B113089580E091E00E94A3
S1132800B1130895A0E0B0E080930001909301011A
S1132810A0930201B09303010895052E97FB1EF4C3
S113282000940E94241457FD07D00E943F1407FC13
S113283003D04EF40C942414509540953095219572
S11328403F4F4F4F5F4F08959095809570956195D8
S11328507F4F8F4F9F4F08950E946114A59F900D45
S1132860B49F900DA49F800D911D11240895B7FF6E
S11328700C942C140E942C14821B930B0895A1E237
S11328801A2EAA1BBB1BFD010DC0AA1FBB1FEE1FE6
S1132890FF1FA217B307E407F50720F0A21BB30B31
S11328A0E40BF50B661F771F881F991F1A9469F7AD
S11328B060957095809590959B01AC01BD01CF0109
S11328C00895A29FB001B39FC001A39F700D811D05
S11328D01124911DB29F700D811D1124911D089525
S10728E0F894FFCF96
S11328E4010000000000000050000000000050003F
S11328F400000000000000000000803F00000040D1
S113290400004040000080400000A0400000C0409F
S10729140000E0409B
S9030000FC
