S00D00004E656F5F312E7372656365
S11300000C9434000C943E000C943E000C943E007E
S11300100C943E000C943E000C943E000C943E0064
S11300200C943E000C943E000C943E000C943E0054
S11300300C943E000C943E000C943E000C943E0044
S11300400C943E000C943E000C943E000C943E0034
S11300500C943E000C943E000C943E000C943E0024
S11300600C943E000C943E0011241FBECFEFD8E048
S1130070DEBFCDBF0E94DC000C940D010C94000087
S1130080249A0895F894E8E1F0E038E08DC0222342
S1130090B4F42C9A000000000000000000000000EE
S11300A00000000000000000000000002C98000088
S11300B000000000000000000000000012C02C9AA4
S11300C000000000000000002C9800000000000068
S11300D0000000000000000000000000000000001C
S11300E00000220F915099F6282F932F2223B4F465
S11300F02C9A000000000000000000000000000036
S1130100000000000000000000002C980000000027
S11301100000000000000000000012C02C9A000043
S11301200000000000002C98000000000000000007
S113013000000000000000000000000000000000BB
S1130140220F915099F6242F932F2223B4F42C9A42
S1130150000000000000000000000000000000009B
S113016000000000000000002C98000000000000C7
S1130170000000000000000012C02C9A00000000E3
S1130180000000002C9800000000000000000000A7
S11301900000000000000000000000000000220F2A
S11301A0915099F6319719F0262F932F70CF7894A8
S11301B080E38A95F1F708950E944000C0E0DC2FA7
S11301C04C2F6C2F8D2F0E9442008FE99FE00197E6
S11301D0F1F700C00000DF5FDF3F91F7DC2F4C2F09
S11301E06D2F8C2F0E9442008FE99FE00197F1F759
S11301F000C00000DF5FDF3F91F7DC2F4D2F6C2F35
S11302008C2F0E9442008FE99FE00197F1F700C014
S11102100000DF5FDF3F91F7D2CFF894FFCFFD
S9030000FC
