:100000000C9470000C948D000C948D000C948D0059
:100010000C948D000C948D000C948D000C948D002C
:100020000C948D000C948D000C948D000C948D001C
:100030000C948D000C948D000C948D000C948D000C
:100040000C948D000C948D000C948D000C948D00FC
:100050000C948D000C948D000C948D000C948D00EC
:100060000C948D000C948D0005A84CCDB2D44EB9E3
:100070003836A9020C50B9918688083CA6AAAA2A4B
:10008000BE000000803F08000000BE922449123EDE
:10009000ABAAAA2ABECDCCCC4C3E00000080BEABA1
:1000A000AAAAAA3E00000000BF000000803F000096
:1000B000000000084178D3BB4387D1133D190E3CA3
:1000C000C3BD4282AD2B3E68EC8276BED98FE1A9DA
:1000D0003E4C80EFFFBE01C4FF7F3F0000000000E8
:1000E00011241FBECFEFD8E0DEBFCDBF11E0A0E0EE
:1000F000B1E0E6E1F3E202C005900D92A433B1074E
:10010000D9F721E0A4E3B1E001C01D92AC37B207FA
:10011000E1F70E94CE0C0C9489110C9400000F930F
:100120001F93CF93DF93EC018C01005E1F4F20E003
:1001300030E040E05EE3688179818A819B810E94A2
:10014000E40F6993799389939993C017D10779F74D
:10015000DF91CF911F910F9108952F923F924F926F
:100160005F926F927F928F929F92AF92BF92CF9247
:10017000DF92EF92FF920F931F93CF93DF93CDB750
:10018000DEB764970FB6F894DEBF0FBECDBF1C017B
:1001900089829A82AB82BC82CD82DE82EF82F8862F
:1001A00009871A872B873C874D875E876F87788BF7
:1001B00089819A81AB81BC81898B9A8BAB8BBC8BFB
:1001C000CD80DE80EF80F88449845A846B847C84FF
:1001D0008D849E84AF84B8889C01AD01C301B201B7
:1001E0000E94800DD1016D937D938D939C93139705
:1001F000A5019401C701B6010E94800DF10164833D
:10020000758386839783A301920169897A898B8993
:100210009C890E947F0DD10118966D937D938D93DB
:100220009C931B97A5019401C701B6010E947F0D05
:10023000F1016487758786879787C10164960FB639
:10024000F894DEBF0FBECDBFDF91CF911F910F910C
:10025000FF90EF90DF90CF90BF90AF909F908F90E6
:100260007F906F905F904F903F902F900895EF9206
:10027000FF920F931F93CF93DF93EA017901F80167
:100280000081118122813381DC010D931D932D9317
:100290003C93139714961D921D921D921C921797D2
:1002A000008911892289338918960D931D932D9306
:1002B0003C931B971C961D921D921D921C921F979A
:1002C0000085118522853385DB010D931D932D93C8
:1002D0003C93139714961D921D921D921C92179792
:1002E000008D118D228D338D18960D931D932D93B6
:1002F0003C931B971C961D921D921D921C921F975A
:100300004481558166817781488359836A837B83E1
:100310001C821D821E821F824489558966897789C5
:10032000488759876A877B871C861D861E861F869D
:100330004485558566857785D7014D935D936D938B
:100340007C93139714961D921D921D921C921797E1
:10035000448D558D668D778DF70140875187628773
:1003600073871C961D921D921D921C921F97DF9100
:10037000CF911F910F91FF90EF9008959C013695BA
:1003800027952115310589F04FE050E0880F991F1E
:10039000B90161707727862B972B4150510936950B
:1003A00027952115310591F702C04FE050E002C0BA
:1003B000880F991F4A95E2F70895AF92BF92CF92A6
:1003C000DF92EF92FF920F931F93CF93DF93082F4B
:1003D000192F6B015A0160FD5EC080E090E00E9421
:1003E0009E0E0E949C0F28E132E741E35FE30E94EA
:1003F000F60D0E94680E20E130E07901E61AF70A56
:10040000D694C794C114D10409F448C0C02FD12F89
:1004100000E010E0C8010E94BE010E2C02C09695BB
:1004200087950A94E2F7FC01EE0FFF1FEE0FFF1F06
:10043000EA0DFB1D80819181A281B381888399831C
:10044000AA83BB831C821D821E821F820F5F1F4FE7
:10045000C8010E94BE010E2C02C0969587950A9491
:10046000E2F7FC01EE0FFF1FEE0FFF1FEA0DFB1D71
:1004700080819181A281B38188879987AA87BB8770
:100480001C861D861E861F8668960C151D0511F696
:1004900080E090E005C081E090E002C080E090E064
:1004A000DF91CF911F910F91FF90EF90DF90CF9050
:1004B000BF90AF9008952F923F924F925F926F92AC
:1004C0007F928F929F92AF92BF92CF92DF92EF92E4
:1004D000FF920F931F93CF93DF93CDB7DEB7609753
:1004E0000FB6F894DEBF0FBECDBF3C0189829A8261
:1004F000AB82BC82CD82DE82EF82F88609871A87C2
:100500002B873C874D875E876F87788B29A53AA517
:100510004BA55CA56D817E818F8198850E94800DA1
:100520001B012C012DA53EA54FA558A969857A85EB
:100530008B859C850E94800D4B015C0129A93AA9FD
:100540004BA95CA96D857E858F8598890E94800D59
:100550006B017C012DA13EA14FA158A569817A8133
:100560008B819C810E94800DF30160837183828363
:100570009383248235824682578280869186A28622
:10058000B386C486D586E686F786C30160960FB625
:10059000F894DEBF0FBECDBFDF91CF911F910F91B9
:1005A000FF90EF90DF90CF90BF90AF909F908F9093
:1005B0007F906F905F904F903F902F9008954F9253
:1005C0005F926F927F928F929F92AF92BF92CF92E3
:1005D000DF92EF92FF920F931F93CF93DF93CDB7EC
:1005E000DEB760970FB6F894DEBF0FBECDBF8C01AB
:1005F0002B962CAD3DAD4EAD5FAD2B976FA178A581
:1006000089A59AA50E94800D2B013C012BA53CA534
:100610004DA55EA52F966CAD7DAD8EAD9FAD2F9790
:100620000E94800D4B015C012FA538A949A95AA948
:1006300063966CAD7DAD8EAD9FAD63970E94800DCE
:1006400069837A838B839C8367962CAD3DAD4EADD9
:100650005FAD67976BA97CA98DA99EA90E94800DAB
:100660006D837E838F8398876B962CAD3DAD4EADA9
:100670005FAD6B976FA978AD89AD9AAD0E94800D83
:1006800069877A878B879C876F962CAD3DAD4EAD81
:100690005FAD6F976BAD7CAD8DAD9EAD0E94800D53
:1006A0006D877E878F87988BA3962CAD3DAD4EAD21
:1006B0005FADA39723966CAD7DAD8EAD9FAD2397B7
:1006C0000E94800D6B017C0127962CAD3DAD4EAD97
:1006D0005FAD27976BA17CA18DA19EA10E94800D8B
:1006E000D8016D937D938D939C931397F801448269
:1006F00055826682778218968D929D92AD92BC92B9
:100700001B9789819A81AB81BC8184879587A68755
:10071000B7878D819E81AF81B885808B918BA28BAD
:10072000B38B89859A85AB85BC85848B958BA68B8D
:10073000B78B8D859E85AF85B889808F918FA28F6D
:10074000B38FC48ED58EE68EF78EC80160960FB635
:10075000F894DEBF0FBECDBFDF91CF911F910F91F7
:10076000FF90EF90DF90CF90BF90AF909F908F90D1
:100770007F906F905F904F9008952F923F924F928D
:100780005F926F927F928F929F92AF92BF92CF9221
:10079000DF92EF92FF920F931F93CF93DF93CDB72A
:1007A000DEB760970FB6F894DEBF0FBECDBF3C0139
:1007B00089829A82AB82BC82CD82DE82EF82F88609
:1007C00009871A872B873C874D875E876F87788BD1
:1007D00029A53AA54BA55CA56D817E818F81988561
:1007E0000E947F0D1B012C012DA53EA54FA558A9E8
:1007F00069857A858B859C850E947F0D4B015C0104
:1008000029A93AA94BA95CA96D857E858F85988910
:100810000E947F0D6B017C012DA13EA14FA158A527
:1008200069817A818B819C810E947F0DF3016083B5
:1008300071838283938324823582468257828086A5
:100840009186A286B386C486D586E686F786C301DE
:1008500060960FB6F894DEBF0FBECDBFDF91CF918B
:100860001F910F91FF90EF90DF90CF90BF90AF90CE
:100870009F908F907F906F905F904F903F902F90C0
:1008800008956F927F928F929F92AF92BF92CF9274
:10089000DF92EF92FF920F931F93CF93DF93CDB729
:1008A000DEB7E0970FB6F894DEBF0FBECDBF3C01B8
:1008B00089A29AA2ABA2BCA2CDA2DEA2EFA2F8A608
:1008C00009A71AA72BA73CA74DA75EA76FA778ABD0
:1008D0008DB79EB740970FB6F8949EBF0FBE8DBFE1
:1008E000ADB7BEB7119680E1FE01B19601900D92B1
:1008F0008A95E1F722968FAC229723969FAC239797
:100900002496AFAC24972596BFAC25972696CFACFE
:1009100026972796DFAC27972896EFAC289729963D
:10092000FFAC29972A960FAD2A972B961FAD2B97D0
:100930002C962FAD2C972D963FAD2D972E964FAD23
:100940002E972F965FAD2F9760966FAD609761964B
:100950007FAD6197CE0101960E945B028DB79EB775
:1009600040970FB6F8949EBF0FBE8DBFADB7BEB710
:10097000119680E1FE01EF5BFF4F01900D928A9589
:10098000E1F789A09AA0ABA0BCA0CDA0DEA0EFA00B
:10099000F8A409A51AA52BA53CA54DA55EA56FA594
:1009A00078A9CE0141960E94BD0388E0FE013196F0
:1009B000D30101900D928A95E1F788E0FE01399606
:1009C000D301189601900D928A95E1F788E0FE0117
:1009D0007196D301509601900D928A95E1F788E0C7
:1009E000FE017996D301589601900D928A95E1F710
:1009F0000FB6F894DEBF0FBECDBFC301E0960FB6B1
:100A0000F894DEBF0FBECDBFDF91CF911F910F9144
:100A1000FF90EF90DF90CF90BF90AF909F908F901E
:100A20007F906F9008954F925F926F927F928F9216
:100A30009F92AF92BF92CF92DF92EF92FF920F936D
:100A40001F93CF93DF93CDB7DEB760970FB6F894BF
:100A5000DEBF0FBECDBF8C012B962CAD3DAD4EAD94
:100A60005FAD2B976FA178A589A59AA50E947F0DF0
:100A70002B013C012F962CAD3DAD4EAD5FAD2F97B8
:100A80006BA57CA58DA59EA50E947F0D4B015C01E9
:100A900063962CAD3DAD4EAD5FAD63976FA578A964
:100AA00089A99AA90E947F0D69837A838B839C838D
:100AB00067962CAD3DAD4EAD5FAD67976BA97CA938
:100AC0008DA99EA90E947F0D6D837E838F83988759
:100AD0006B962CAD3DAD4EAD5FAD6B976FA978AD0C
:100AE00089AD9AAD0E947F0D69877A878B879C8735
:100AF0006F962CAD3DAD4EAD5FAD6F976BAD7CADE0
:100B00008DAD9EAD0E947F0D6D877E878F87988B00
:100B1000A3962CAD3DAD4EAD5FADA39723966CADC6
:100B20007DAD8EAD9FAD23970E947F0D6B017C0143
:100B300027962CAD3DAD4EAD5FAD27976BA17CA147
:100B40008DA19EA10E947F0DD8016D937D938D9301
:100B50009C931397F8014482558266827782189697
:100B60008D929D92AD92BC921B9789819A81AB81A7
:100B7000BC8184879587A687B7878D819E81AF8149
:100B8000B885808B918BA28BB38B89859A85AB8539
:100B9000BC85848B958BA68BB78B8D859E85AF8509
:100BA000B889808F918FA28FB38FC48ED58EE68E39
:100BB000F78EC80160960FB6F894DEBF0FBECDBFAA
:100BC000DF91CF911F910F91FF90EF90DF90CF9029
:100BD000BF90AF909F908F907F906F905F904F905D
:100BE00008950F931F93CF93DF93CDB7DEB7C05413
:100BF000D1090FB6F894DEBF0FBECDBF8C018DB703
:100C00009EB780970FB6F8949EBF0FBE8DBFADB74D
:100C1000BEB7119680E2FE01E959FF4F01900D9297
:100C20008A95E1F78DB79EB780970FB6F8949EBF6F
:100C30000FBE8DBFADB7BEB7119680E2FE01E95B76
:100C4000FF4F01900D928A95E1F7CE0101960E9427
:100C5000DF028DB79EB7805C9F4F0FB6F894DEBF62
:100C60000FBECDBF80970FB6F8949EBF0FBE8DBF4D
:100C7000ADB7BEB7119680E2FE01E959FF4F019072
:100C80000D928A95E1F78DB79EB780970FB6F894CD
:100C90009EBF0FBE8DBFADB7BEB7119680E2FE01FD
:100CA000E95BFF4F01900D928A95E1F7CE018196A5
:100CB0000E94130588E0FE013196D80101900D9243
:100CC0008A95E1F788E0FE013996D80118960190DF
:100CD0000D928A95E1F788E0FE017196D801509651
:100CE00001900D928A95E1F788E0FE017996D8018E
:100CF000589601900D928A95E1F788E0FE01B19631
:100D0000D801909601900D928A95E1F788E0FE0156
:100D1000B996D801989601900D928A95E1F788E0EE
:100D2000FE01F196D801D09601900D928A95E1F7D7
:100D300088E0FE01F996D801D89601900D928A9527
:100D4000E1F70FB6F894DEBF0FBECDBFC801C05C9F
:100D5000DF4F0FB6F894DEBF0FBECDBFDF91CF914E
:100D60001F910F9108954F925F926F927F928F9291
:100D70009F92AF92BF92CF92DF92EF92FF920F932A
:100D80001F93CF93DF93CDB7DEB7A0970FB6F8943C
:100D9000DEBF0FBECDBF29873A874B875C876D8743
:100DA0007E878F87988BA98ABA8ACB8ADC8AED8A5C
:100DB000FE8A0F8B188F89849A84AB84BC848D85BE
:100DC0009E85AF85B889898F9A8FAB8FBC8F4988F4
:100DD0005A886B887C88CD88DE88EF88F88CA501DE
:100DE0009401C301B2010E94E40F6D8F7E8F8F8F3B
:100DF00098A3298D3A8D4B8D5C8DC701B6010E9459
:100E0000E40F9B01AC016D8D7E8D8F8D98A10E94AA
:100E10007F0D162F462F572F682F792F49835A831E
:100E20006B837C83A5019401C701B6010E94E40F86
:100E30006B017C01298D3A8D4B8D5C8DC301B20114
:100E40000E94E40F9B01AC01C701B6010E94800D16
:100E5000E62F462F572F682F792F4D835E836F83A0
:100E60007887212F3A814B815C816E2F7E818F8123
:100E70009885A0960FB6F894DEBF0FBECDBFDF9168
:100E8000CF911F910F91FF90EF90DF90CF90BF9087
:100E9000AF909F908F907F906F905F904F9008954C
:100EA0006F927F928F929F92AF92BF92CF92DF927A
:100EB000EF92FF920F931F93CF93DF93CDB7DEB7DF
:100EC00068970FB6F894DEBF0FBECDBF3C01898690
:100ED0009A86AB86BC86CD86DE86EF86F88A098B3D
:100EE0001A8B2B8B3C8B4D8B5E8B6F8B788F198283
:100EF0001A821B821C8280E090E0A0E8BFEB8D8309
:100F00009E83AF83B88788E0FE013996D3010190B4
:100F10000D928A95E1F7A988BA88CB88DC88ED889C
:100F2000FE880F89188D29813A814B815C816D8102
:100F30007E818F8198850E94B306F30120873187D7
:100F4000428753876487758786879787C30168962A
:100F50000FB6F894DEBF0FBECDBFDF91CF911F91CA
:100F60000F91FF90EF90DF90CF90BF90AF909F9048
:100F70008F907F906F9008958F929F92AF92BF92C3
:100F8000CF92DF92EF92FF920F931F93CF93DF9355
:100F9000CDB7DEB7A0970FB6F894DEBF0FBECDBFBA
:100FA0004C0180E090E0A0E8BFE389839A83AB83A3
:100FB000BC831D821E821F82188683EF94E0A5E306
:100FC000BFE389879A87AB87BC8783EF94E0A5E36B
:100FD000BFEB8D879E87AF87B88B198A1A8A1B8AC9
:100FE0001C8A40E050E060E87FEB4D8B5E8B6F8B9E
:100FF000788F898F9A8FAB8FBC8F8D8F9E8FAF8F9D
:10100000B8A3A12CBA80CB80DC80E12CFE800F81BC
:1010100018852FA538A949A95AA96BA97CA98DA91A
:101020009EA90E94B306F401208331834283538337
:101030006483758386839783A984BA84CB84DC8494
:10104000ED84FE840F8518892FA938AD49AD5AADBE
:101050006BAD7CAD8DAD9EAD0E94B306F4012087D3
:101060003187428753876487758786879787A988E2
:10107000BA88CB88DC88ED88FE880F89188D2FAD63
:1010800021963FAD219722964FAD229723965FADD3
:10109000239724966FAD249725967FAD25972696A6
:1010A0008FAD269727969FAD27970E94B306F40130
:1010B000208B318B428B538B648B758B868B978BFC
:1010C000A98CBA8CCB8CDC8CED8CFE8C0F8D18A18E
:1010D00028962FAD289729963FAD29972A964FAD90
:1010E0002A972B965FAD2B972C966FAD2C972D964C
:1010F0007FAD2D972E968FAD2E972F969FAD2F9764
:101100000E94B306F401208F318F428F538F648F7A
:10111000758F868F978FC401A0960FB6F894DEBFA7
:101120000FBECDBFDF91CF911F910F91FF90EF9038
:10113000DF90CF90BF90AF909F908F9008952F92A7
:101140003F924F925F926F927F928F929F92AF9257
:10115000BF92CF92DF92EF92FF920F931F93CF93A4
:10116000DF9300D000D0CDB7DEB76D968CAD9DADCE
:10117000AEADBFAD6D9789839A83AB83BC8320E00E
:1011800030E040E05FE3698D7A8D8B8D9C8D0E940D
:10119000E40F6B017C01DE0159961D0101E010E0B6
:1011A000F101408451846284738484849584A6848C
:1011B000B7842FE632E143E85AE3C301B2010E944B
:1011C0008F0F181654F02FE632E143E85AEBC301B3
:1011D000B2010E94EC0D8823DCF4B801012E000C52
:1011E000880B990B0E94A00E29813A814B815C816A
:1011F0000E94E40F0E94F10DA30192010E94E40FEE
:101200009B01AC01C701B6010E94800D6B017C01FE
:101210002FE632E143E85AE3C501B4010E948F0F83
:10122000181654F02FE632E143E85AEBC501B40139
:101230000E94EC0D8823DCF4B801012E000C880B11
:10124000990B0E94A00E29813A814B815C810E94FA
:10125000E40F0E945110A50194010E94E40F9B012C
:10126000AC01C701B6010E94800D6B017C010F5FCC
:101270001F4FF8E02F0E311C0830110509F090CFF8
:10128000C701B6010F900F900F900F90DF91CF9193
:101290001F910F91FF90EF90DF90CF90BF90AF9094
:1012A0009F908F907F906F905F904F903F902F9086
:1012B00008956F927F928F929F92AF92BF92CF923A
:1012C000DF92EF92FF920F931F93CF93DF93CDB7EF
:1012D000DEB7C05DD1090FB6F894DEBF0FBECDBF3B
:1012E0003C018B01CB010E948F009E012F5C3F4F80
:1012F000AE014F5D5F4FBE016F5E7F4FCE01019625
:101300000E94370189809A80AB80BC80CD80DE80CE
:10131000EF80F88409851A852B853C854D855E858F
:101320006F857889CE018F539F4F0E94AD0080E179
:10133000FE01EF53FF4FDE01119601900D928A9549
:10134000E1F789889A88AB88BC88CD88DE88EF88E9
:10135000F88C098D1A8D2B8D3C8D4D8D5E8D6F8D8A
:1013600078A1CE018F539F4F0E94AD0080E1FE0116
:10137000EF53FF4FDE01519601900D928A95E1F7F0
:1013800089A09AA0ABA0BCA0CDA0DEA0EFA0F8A43D
:1013900009A51AA52BA53CA54DA55EA56FA578A905
:1013A000CE018F539F4F0E94AD0080E1FE01EF53AD
:1013B000FF4FDE01919601900D928A95E1F789A881
:1013C0009AA8ABA8BCA8CDA8DEA8EFA8F8AC09AD38
:1013D0001AAD2BAD3CAD4DAD5EAD6FAD21967FAD81
:1013E0002197CE018F539F4F0E94AD0080E1FE01F7
:1013F000EF53FF4FDE01D19601900D928A95E1F7F0
:1014000089889A88AB88BC88CD88DE88EF88F88C7C
:10141000098D1A8D2B8D3C8D4D8D5E8D6F8D78A134
:10142000CE018F579F4F0E94500789A89AA8ABA85A
:10143000BCA8CDA8DEA8EFA8F8AC09AD1AAD2BADBD
:101440003CAD4DAD5EAD6FAD21967FAD2197CE0128
:101450008F569F4F0E9450078DB79EB740970FB68B
:10146000F8949EBF0FBE8DBFADB7BEB7119680E199
:10147000FE01EF57FF4F01900D928A95E1F78980A9
:101480009A80AB80BC80CD80DE80EF80F8840985B7
:101490001A852B853C854D855E856F857889CE01C3
:1014A0008F5B9F4F0E9441048DB79EB740970FB648
:1014B000F8949EBF0FBE8DBFADB7BEB7119680E149
:1014C000FE01EF56FF4F01900D928A95E1F789A03A
:1014D0009AA0ABA0BCA0CDA0DEA0EFA0F8A409A567
:1014E0001AA52BA53CA54DA55EA56FA578A9CE0193
:1014F0008F599F4F0E9441048DB79EB780960FB6BB
:10150000F894DEBF0FBECDBF80970FB6F8949EBF94
:101510000FBE8DBFADB7BEB7119680E2FE01EF5989
:10152000FF4F01900D928A95E1F7CE018F559F4FA5
:101530000E94BC078DB79EB780960FB6F894DEBFA9
:101540000FBECDBF80970FB6F8949EBF0FBE8DBF64
:10155000ADB7BEB7119680E2FE01EF55FF4F019087
:101560000D928A95E1F78DB79EB780970FB6F894E4
:101570009EBF0FBE8DBFADB7BEB7119680E2FE0114
:10158000EF5BFF4F01900D928A95E1F7C3010E9436
:10159000F1050FB6F894DEBF0FBECDBFC301C05337
:1015A000DF4F0FB6F894DEBF0FBECDBFDF91CF91F6
:1015B0001F910F91FF90EF90DF90CF90BF90AF9071
:1015C0009F908F907F906F900895249A0895F8943B
:1015D000E6E3F1E06EE771E048E0DF0112979C91ED
:1015E00011963C918081242F3323B4F42C9A00006F
:1015F00000000000000000000000000000000000EB
:101600000000000000002C98000000000000000016
:1016100000000000000012C02C9A00000000000032
:1016200000002C98000000000000000000000000F6
:10163000000000000000000000000000330F2150F7
:1016400099F6242F9923B4F42C9A0000000000008E
:10165000000000000000000000000000000000008A
:1016600000002C98000000000000000000000000B6
:10167000000012C02C9A00000000000000002C980E
:10168000000000000000000000000000000000005A
:101690000000000000000000990F215099F6942FDF
:1016A0008823B4F42C9A0000000000000000000021
:1016B00000000000000000000000000000002C9866
:1016C000000000000000000000000000000012C048
:1016D0002C9A00000000000000002C980000000080
:1016E00000000000000000000000000000000000FA
:1016F00000000000880F915099F63396E617F7071F
:1017000009F06BCF789480E38A95F1F70895E6E3CA
:10171000F1E02EE731E0DF0112976C9311967C9394
:1017200080833396E217F307B1F708952F923F9223
:101730004F925F926F927F928F929F92AF92BF92E1
:10174000CF92DF92EF92FF920F931F93CF93DF938D
:1017500000D000D0CDB7DEB79A8389830F2EF4E393
:101760002F2EF1E03F2EF02D4C016894AA24A2F810
:10177000B12C64C0F40160817181072E000C880BCC
:10178000990B0E94A00E6B017C01B5012B813C815D
:10179000621B730B072E000C880B990B0E94A00E86
:1017A00020E030E040E85EE30E94E40F9B01AC01E2
:1017B000C701B6010E94E40F6B017C01F401628154
:1017C0007381072E000C880B990B0E94A00E2B0131
:1017D0003C012B813C81B901330F880B990B0E948E
:1017E000A00E20E030E040E85EE30E94E40F9B01A1
:1017F000AC01C301B2010E94E40F9B01AC01C7011F
:10180000B6010E94800D0E946F0EF80160832B814B
:101810003C812F5F3F4F3C832B830D5F1F4F243054
:10182000310509F0A7CF3CE0230E311C82E0880E81
:10183000911C9CE7291691E0390631F08101E12CD9
:10184000F12CFC82EB8296CFE981FA81848580932A
:1018500079010F900F900F900F90DF91CF911F9112
:101860000F91FF90EF90DF90CF90BF90AF909F903F
:101870008F907F906F905F904F903F902F90089542
:101880008F929F92AF92BF92CF92DF92EF92FF9290
:101890000F931F93CF93DF93CDB7DEB7C054D10919
:1018A0000FB6F894DEBF0FBECDBFBC01CE010196CE
:1018B0000E9459090F2EF4E3AF2EF1E0BF2EF02D58
:1018C00000E010E06894992496F888248A94B8017E
:1018D000012E000C880B990B0E94A00E25E535E522
:1018E00045E95EE30E94E40F9F938F937F936F938C
:1018F0002DB73EB7205431090FB6F8943EBF0FBE46
:101900002DBFADB7BEB71196FE013196892D01905E
:101910000D928A95E1F70E949F080FB6F894DEBFFA
:101920000FBECDBF6B017C0120E030E0A9010E9419
:101930008F0F1816A4F420E030E04FE753E4C701FE
:10194000B6010E94EC0D88233CF4C701B6010E9449
:10195000680EF501608305C0F501808202C0F501C3
:1019600010820F5F1F4FF3E0AF0EB11C083111055D
:1019700009F0ADCFC05CDF4F0FB6F894DEBF0FBEED
:10198000CDBFDF91CF911F910F91FF90EF90DF902E
:10199000CF90BF90AF909F908F900895CF93DF939B
:1019A000CDB7DEB7C059D1090FB6F894DEBF0FBE70
:1019B000CDBF0E94E50A80E1E4E0F1E0DE0111968E
:1019C00001900D928A95E1F78E010F5E1F4F80E224
:1019D000F80111928A95E9F780E090E0AFE7B3E46F
:1019E00089A39AA3ABA3BCA36AE070E080E00E9445
:1019F000870BC8010E94400C85E090E00E94BE0168
:101A00009A83898380E2E4E1F1E0DE01AF58BF4FC1
:101A100001900D928A95E1F7AE014F585F4F68E053
:101A200070E0CE01C1960E94DD0181E090E00E944D
:101A3000BE01BC0180E090E00E949E0EE5966CAF76
:101A40007DAF8EAF9FAFE5970E94E70A4E01FDE2A2
:101A50008F0E911C0F2EF2E3AF2EB12CF02D8E01C4
:101A60000F5E1F4FCE0101966C010E941611B50149
:101A70000E94A2107C01BC01990F880B990B0E9457
:101A8000A00EF80161937193819391938F01F601F8
:101A9000E192F1926F010815190539F729A53AA5C8
:101AA0004BA55CA569897A898B899C890E94800DE8
:101AB00020E030E040E05FE30E94E40F6DA77EA7E6
:101AC0008FA798AB29813A818D859E85820F931FC0
:101AD00099230CF4019695958795988B8F87FFEF46
:101AE00024E38CE0F15020408040E1F700C000008A
:101AF000CE0101960E94960B0E94E70AB0CF505883
:101B0000BB27AA270E94970D0C94410F0E94080F33
:101B100038F00E940F0F20F039F49F3F19F426F49B
:101B20000C94050F0EF4E095E7FB0C94FF0EE92FE3
:101B30000E94660F58F3BA17620773078407950768
:101B400020F079F4A6F50C94880F0EF4E0950B2E96
:101B5000BA2FA02D0B01B90190010C01CA01A001FF
:101B60001124FF27591B99F0593F50F4503E68F15A
:101B70001A16F040A22F232F342F4427585FF3CF9B
:101B8000469537952795A795F0405395C9F77EF46C
:101B90001F16BA0B620B730B840BBAF09150A1F0B5
:101BA000FF0FBB1F661F771F881FC2F70EC0BA0F3B
:101BB000621F731F841F48F4879577956795B795C3
:101BC000F7959E3F08F0B0CF9395880F08F09927BE
:101BD000EE0F9795879508950E94DB0E08F481E03B
:101BE00008950E94180FE3950C94520F0E940A0E5C
:101BF0000C94410F0E940F0F58F00E94080F40F004
:101C000029F45F3F29F00C94FF0E51110C94890FB9
:101C10000C94050F0E94660F68F39923B1F35523C6
:101C200091F3951B550BBB27AA27621773078407EF
:101C300038F09F5F5F4F220F331F441FAA1FA9F385
:101C400035D00E2E3AF0E0E832D091505040E69573
:101C5000001CCAF72BD0FE2F29D0660F771F881FD4
:101C6000BB1F261737074807AB07B0E809F0BB0BC7
:101C7000802DBF01FF2793585F4F3AF09E3F5105DB
:101C800078F00C94FF0E0C94890F5F3FE4F3983EBC
:101C9000D4F3869577956795B795F7959F5FC9F7C4
:101CA000880F911D9695879597F90895E1E0660F45
:101CB000771F881FBB1F621773078407BA0720F0BE
:101CC000621B730B840BBA0BEE1F88F7E095089527
:101CD0000E946F0E6894B1110C94890F08950E94B0
:101CE0006E0F88F09F5798F0B92F9927B751B0F031
:101CF000E1F0660F771F881F991F1AF0BA95C9F790
:101D000014C0B13091F00E94880FB1E008950C9496
:101D1000880F672F782F8827B85F39F0B93FCCF349
:101D2000869577956795B395D9F73EF4909580950C
:101D3000709561957F4F8F4F9F4F0895E89409C02C
:101D400097FB3EF490958095709561957F4F8F4FEE
:101D50009F4F9923A9F0F92F96E9BB279395F69504
:101D6000879577956795B795F111F8CFFAF4BB0F82
:101D700011F460FF1BC06F5F7F4F8F4F9F4F16C0E6
:101D8000882311F096E911C0772321F09EE8872F70
:101D9000762F05C0662371F096E8862F70E060E02C
:101DA0002AF09A95660F771F881FDAF7880F9695A5
:101DB000879597F90895990F0008550FAA0BE0E849
:101DC000FEEF16161706E807F907C0F012161306FD
:101DD000E407F50798F0621B730B840B950B39F43D
:101DE0000A2661F0232B242B252B21F408950A26A3
:101DF00009F4A140A6958FEF811D811D089597F9E3
:101E00009F6780E870E060E008959FEF80EC0895A0
:101E100000240A94161617061806090608950024C9
:101E20000A94121613061406050608950C94050F5D
:101E30000E946E0FD8F3E894E0E0BB279F57F0F0C4
:101E40002AED3FE049EC06C0EE0FBB0F661F771F7F
:101E5000881F28F0B23A62077307840728F0B25A45
:101E6000620B730B840BE3959A9572F7803830F40C
:101E70009A95BB0F661F771F881FD2F790480C9466
:101E80005B10092E0394000C11F4882352F0BB0F51
:101E900040F4BF2B11F460FF04C06F5F7F4F8F4F82
:101EA0009F4F0895EF93E0FF07C0A2EA2AED3FE0BD
:101EB00049EC5FEB0E94970D0E94410F0F90039435
:101EC00001FC9058E8E6F0E00C948E1057FD905815
:101ED000440F551F59F05F3F71F04795880F97FBEE
:101EE000991F61F09F3F79F08795089512161306A8
:101EF0001406551FF2CF4695F1DF08C016161706D7
:101F00001806991FF1CF869571056105089408950B
:101F1000E894BB2766277727CB0197F908950E949D
:101F2000DB0E08F48FEF089516F00C9459100C9402
:101F3000050F68940C94FF0E0E946E0FA8F399236E
:101F4000C1F3AEF3DF93CF931F930F93FF92C92F8B
:101F5000DD2788232AF02197660F771F881FDAF77D
:101F600020E030E040E85FEB9FE3883920F0803EDE
:101F700038F021968F770E94800DE6E8F0E004C0EB
:101F80000E94800DE3EBF0E00E9467108B01BE0120
:101F9000EC01FB2E6F5771097595771F880B990B14
:101FA0000E94A00E28E132E741E35FE30E94F70FB1
:101FB000AF2D9801AE01FF900F911F91CF91DF914E
:101FC0000E94970D0C94410F0E94F70F0C94410F43
:101FD0000E94080F38F00E940F0F20F0952311F097
:101FE0000C94FF0E0C94050F11240C94890F0E9481
:101FF000660F70F3959FC1F3950F50E0551F629FD8
:10200000F001729FBB27F00DB11D639FAA27F00D51
:10201000B11DAA1F649F6627B00DA11D661F829F78
:102020002227B00DA11D621F739FB00DA11D621F5D
:10203000839FA00D611D221F749F3327A00D611D7A
:10204000231F849F600D211D822F762F6A2F11245C
:102050009F5750409AF0F1F088234AF0EE0FFF1F8F
:10206000BB1F661F771F881F91505040A9F79E3FE6
:10207000510580F00C94FF0E0C94890F5F3FE4F340
:10208000983ED4F3869577956795B795F795E7953C
:102090009F5FC1F7FE2B880F911D9695879597F945
:1020A00008959F930E94180F0F9007FCEE5F0C9409
:1020B000520F9F3F31F0915020F4879577956795A7
:1020C000B795880F911D9695879597F90895DF9399
:1020D000CF931F930F93FF92EF92DF927B018C01BE
:1020E000689406C0DA2EEF010E94F70FFE01E89413
:1020F000A5912591359145915591A6F3EF010E9447
:10210000970DFE019701A801DA9469F7DF90EF902F
:10211000FF900F911F91CF91DF9108959F938F931F
:102120007F936F93FF93EF939B01AC010E94E40FA9
:10213000EF91FF910E9467102F913F914F915F9116
:102140000C94E40F97FB072E16F4009407D077FD4C
:1021500009D00E94B61007FC05D03EF490958195F9
:102160009F4F0895709561957F4F0895AA1BBB1BE3
:1021700051E107C0AA1FBB1FA617B70710F0A61B87
:10218000B70B881F991F5A95A9F780959095BC01A8
:10219000CD0108958F929F92AF92BF92CF92DF921E
:1021A000EF92FF92CF93DF93EC01688179818A816E
:1021B0009B81611571058105910521F464E279ED3A
:1021C0008BE597E02DE133EF41E050E00E942611CE
:1021D00049015A019B01AC01A7EAB1E40E944511F3
:1021E0006B017C01ACEEB4EFA50194010E94531188
:1021F000DC01CB018C0D9D1DAE1DBF1DB7FF03C0C3
:102200000197A109B04888839983AA83BB839F77EC
:10221000DF91CF91FF90EF90DF90CF90BF90AF9084
:102220009F908F9008950E94CA10089580E091E0D9
:102230000E94CA100895A0E0B0E08093000190933E
:102240000101A0930201B09303010895052E97FBAD
:102250001EF400940E943D1157FD07D00E945811B2
:1022600007FC03D04EF40C943D11509540953095E9
:1022700021953F4F4F4F5F4F0895909580957095F2
:1022800061957F4F8F4F9F4F08950E947A11A59FB0
:10229000900DB49F900DA49F800D911D1124089561
:1022A000B7FF0C9445110E944511821B930B0895B2
:1022B000A1E21A2EAA1BBB1BFD010DC0AA1FBB1F4A
:1022C000EE1FFF1FA217B307E407F50720F0A21BBC
:1022D000B30BE40BF50B661F771F881F991F1A9429
:1022E00069F760957095809590959B01AC01BD0153
:1022F000CF010895A29FB001B39FC001A39F700DAD
:10230000811D1124911DB29F700D811D1124911DFD
:062310000895F894FFCFD0
:102316000100000000000000500000000000500016
:1023260000000000000000000000803F00000040A8
:1023360000004040000080400000A0400000C04077
:042346000000E04073
:00000001FF
