S00D00004E656F5F312E7372656365
S11300000C9443000C9460000C9460000C94600009
S11300100C9460000C9460000C9460000C946000DC
S11300200C9460000C9460000C9460000C946000CC
S11300300C9460000C9460000C9460000C946000BC
S11300400C9460000C9460000C9460000C946000AC
S11300500C9460000C9460000C9460000C9460009C
S11300600C9460000C94600005A84CCDB2D44EB939
S11300703836A9020C50B9918688083CA6AAAA2A47
S1130080BE000000803F11241FBECFEFD8E0DEBFCA
S1130090CDBF11E0A0E0B1E0E6EEFDE102C00590C5
S11300A00D92A432B107D9F721E0A4E2B1E001C076
S11300B01D92AC36B207E1F70E94490B0C94F10E85
S11300C00C9400000F931F93CF93DF93EC018C01EA
S11300D0005E1F4F20E030E040E05EE368817981FC
S11300E08A819B810E944C0D69937993899399939A
S11300F0C017D10779F7DF91CF911F910F91089520
S11301002F923F924F925F926F927F928F929F9223
S1130110AF92BF92CF92DF92EF92FF920F931F9311
S1130120CF93DF93CDB7DEB764970FB6F894DEBFF5
S11301300FBECDBF1C0189829A82AB82BC82CD8264
S1130140DE82EF82F88609871A872B873C874D87E2
S11301505E876F87788B89819A81AB81BC81898B1B
S11301609A8BAB8BBC8BCD80DE80EF80F884498486
S11301705A846B847C848D849E84AF84B8889C016B
S1130180AD01C301B2010E94B10BD1016D937D9306
S11301908D939C931397A5019401C701B6010E9406
S11301A0B10BF1016483758386839783A301920164
S11301B069897A898B899C890E94B00BD101189630
S11301C06D937D938D939C931B97A5019401C70117
S11301D0B6010E94B00BF101648775878687978703
S11301E0C10164960FB6F894DEBF0FBECDBFDF9198
S11301F0CF911F910F91FF90EF90DF90CF90BF9020
S1130200AF909F908F907F906F905F904F903F90B2
S11302102F900895EF92FF920F931F93CF93DF9344
S1130220EA017901F8010081118122813381DC0125
S11302300D931D932D933C93139714961D921D9229
S11302401D921C9217970089118922893389189667
S11302500D931D932D933C931B971C961D921D92F9
S11302601D921C921F970085118522853385DB0121
S11302700D931D932D933C93139714961D921D92E9
S11302801D921C921797008D118D228D338D189617
S11302900D931D932D933C931B971C961D921D92B9
S11302A01D921C921F9744815581668177814883F2
S11302B059836A837B831C821D821E821F82448928
S11302C0558966897789488759876A877B871C8619
S11302D01D861E861F864485558566857785D701CC
S11302E04D935D936D937C93139714961D921D9279
S11302F01D921C921797448D558D668D778DF7014D
S113030040875187628773871C961D921D921D92A8
S11303101C921F97DF91CF911F910F91FF90EF9047
S113032008952F923F924F925F926F927F928F9295
S11303309F92AF92BF92CF92DF92EF92FF920F9370
S11303401F93CF93DF93CDB7DEB760970FB6F894C2
S1130350DEBF0FBECDBF3C0189829A82AB82BC82D4
S1130360CD82DE82EF82F88609871A872B873C8745
S11303704D875E876F87788B29A53AA54BA55CA529
S11303806D817E818F8198850E94B10B1B012C01A8
S11303902DA53EA54FA558A969857A858B859C8591
S11303A00E94B10B4B015C0129A93AA94BA95CA994
S11303B06D857E858F8598890E94B10B6B017C01C8
S11303C02DA13EA14FA158A569817A818B819C8181
S11303D00E94B10BF301608371838283938324822F
S11303E035824682578280869186A286B386C486E9
S11303F0D586E686F786C30160960FB6F894DEBF0D
S11304000FBECDBFDF91CF911F910F91FF90EF9061
S1130410DF90CF90BF90AF909F908F907F906F9020
S11304205F904F903F902F9008954F925F926F92FC
S11304307F928F929F92AF92BF92CF92DF92EF9270
S1130440FF920F931F93CF93DF93CDB7DEB76097DF
S11304500FB6F894DEBF0FBECDBF8C012B962CAD2A
S11304603DAD4EAD5FAD2B976FA178A589A59AA53B
S11304700E94B10B2B013C012BA53CA54DA55EA50B
S11304802F966CAD7DAD8EAD9FAD2F970E94B10BB5
S11304904B015C012FA538A949A95AA963966CADF3
S11304A07DAD8EAD9FAD63970E94B10B69837A8356
S11304B08B839C8367962CAD3DAD4EAD5FAD679746
S11304C06BA97CA98DA99EA90E94B10B6D837E8323
S11304D08F8398876B962CAD3DAD4EAD5FAD6B971A
S11304E06FA978AD89AD9AAD0E94B10B69877A87FF
S11304F08B879C876F962CAD3DAD4EAD5FAD6F97EE
S11305006BAD7CAD8DAD9EAD0E94B10B6D877E87CA
S11305108F87988BA3962CAD3DAD4EAD5FADA39761
S113052023966CAD7DAD8EAD9FAD23970E94B10B2C
S11305306B017C0127962CAD3DAD4EAD5FAD279789
S11305406BA17CA18DA19EA10E94B10BD8016D93DA
S11305507D938D939C931397F80144825582668210
S1130560778218968D929D92AD92BC921B97898149
S11305709A81AB81BC8184879587A687B7878D8153
S11305809E81AF81B885808B918BA28BB38B89853B
S11305909A85AB85BC85848B958BA68BB78B8D8513
S11305A09E85AF85B889808F918FA28FB38FC48EBB
S11305B0D58EE68EF78EC80160960FB6F894DEBF2E
S11305C00FBECDBFDF91CF911F910F91FF90EF90A0
S11305D0DF90CF90BF90AF909F908F907F906F905F
S11305E05F904F9008952F923F924F925F926F9237
S11305F07F928F929F92AF92BF92CF92DF92EF92AF
S1130600FF920F931F93CF93DF93CDB7DEB760971D
S11306100FB6F894DEBF0FBECDBF3C0189829A822B
S1130620AB82BC82CD82DE82EF82F88609871A878C
S11306302B873C874D875E876F87788B29A53AA5E2
S11306404BA55CA56D817E818F8198850E94B00B3E
S11306501B012C012DA53EA54FA558A969857A85B6
S11306608B859C850E94B00B4B015C0129A93AA99A
S11306704BA95CA96D857E858F8598890E94B00BF6
S11306806B017C012DA13EA14FA158A569817A81FE
S11306908B819C810E94B00BF30160837183828300
S11306A09383248235824682578280869186A286ED
S11306B0B386C486D586E686F786C30160960FB6F0
S11306C0F894DEBF0FBECDBFDF91CF911F910F9184
S11306D0FF90EF90DF90CF90BF90AF909F908F905E
S11306E07F906F905F904F903F902F9008956F92FE
S11306F07F928F929F92AF92BF92CF92DF92EF92AE
S1130700FF920F931F93CF93DF93CDB7DEB7E0979C
S11307100FB6F894DEBF0FBECDBF3C0189A29AA2EA
S1130720ABA2BCA2CDA2DEA2EFA2F8A609A71AA78B
S11307302BA73CA74DA75EA76FA778AB8DB79EB735
S113074040970FB6F8949EBF0FBE8DBFADB7BEB72E
S1130750119680E1FE01B19601900D928A95E1F720
S113076022968FAC229723969FAC23972496AFAC06
S113077024972596BFAC25972696CFAC2697279627
S1130780DFAC27972896EFAC28972996FFAC2997DA
S11307902A960FAD2A972B961FAD2B972C962FAD2B
S11307A02C972D963FAD2D972E964FAD2E972F96C5
S11307B05FAD2F9760966FAD609761967FAD61973F
S11307C0CE0101960E9491018DB79EB740970FB656
S11307D0F8949EBF0FBE8DBFADB7BEB7119680E132
S11307E0FE01EF5BFF4F01900D928A95E1F789A01E
S11307F09AA0ABA0BCA0CDA0DEA0EFA0F8A409A550
S11308001AA52BA53CA54DA55EA56FA578A9CE017B
S113081041960E94F30288E0FE013196D3010190D3
S11308200D928A95E1F788E0FE013996D301189676
S113083001900D928A95E1F788E0FE017196D3014B
S1130840509601900D928A95E1F788E0FE01799621
S1130850D301589601900D928A95E1F70FB6F8945A
S1130860DEBF0FBECDBFC301E0960FB6F894DEBF66
S11308700FBECDBFDF91CF911F910F91FF90EF90ED
S1130880DF90CF90BF90AF909F908F907F906F90AC
S113089008954F925F926F927F928F929F92AF9240
S11308A0BF92CF92DF92EF92FF920F931F93CF9359
S11308B0DF93CDB7DEB760970FB6F894DEBF0FBEF7
S11308C0CDBF8C012B962CAD3DAD4EAD5FAD2B97BE
S11308D06FA178A589A59AA50E94B00B2B013C01B4
S11308E02F962CAD3DAD4EAD5FAD2F976BA57CA57E
S11308F08DA59EA50E94B00B4B015C0163962CADA7
S11309003DAD4EAD5FAD63976FA578A989A99AA94E
S11309100E94B00B69837A838B839C8367962CAD8A
S11309203DAD4EAD5FAD67976BA97CA98DA99EA91E
S11309300E94B00B6D837E838F8398876B962CAD5A
S11309403DAD4EAD5FAD6B976FA978AD89AD9AADF6
S11309500E94B00B69877A878B879C876F962CAD32
S11309603DAD4EAD5FAD6F976BAD7CAD8DAD9EADC6
S11309700E94B00B6D877E878F87988BA3962CADD2
S11309803DAD4EAD5FADA39723966CAD7DAD8EAD01
S11309909FAD23970E94B00B6B017C0127962CAD71
S11309A03DAD4EAD5FAD27976BA17CA18DA19EA1FE
S11309B00E94B00BD8016D937D938D939C931397F4
S11309C0F801448255826682778218968D929D92B0
S11309D0AD92BC921B9789819A81AB81BC8184873B
S11309E09587A687B7878D819E81AF81B885808BD7
S11309F0918BA28BB38B89859A85AB85BC85848BBF
S1130A00958BA68BB78B8D859E85AF85B889808F96
S1130A10918FA28FB38FC48ED58EE68EF78EC801C8
S1130A2060960FB6F894DEBF0FBECDBFDF91CF91B5
S1130A301F910F91FF90EF90DF90CF90BF90AF90F8
S1130A409F908F907F906F905F904F9008950F9339
S1130A501F93CF93DF93CDB7DEB7C054D1090FB640
S1130A60F894DEBF0FBECDBF8C018DB79EB78097C3
S1130A700FB6F8949EBF0FBE8DBFADB7BEB711962B
S1130A8080E2FE01E959FF4F01900D928A95E1F74A
S1130A908DB79EB780970FB6F8949EBF0FBE8DBFDB
S1130AA0ADB7BEB7119680E2FE01E95BFF4F01903E
S1130AB00D928A95E1F7CE0101960E9415028DB739
S1130AC09EB7805C9F4F0FB6F894DEBF0FBECDBFBC
S1130AD080970FB6F8949EBF0FBE8DBFADB7BEB75B
S1130AE0119680E2FE01E959FF4F01900D928A951B
S1130AF0E1F78DB79EB780970FB6F8949EBF0FBEEF
S1130B008DBFADB7BEB7119680E2FE01E95BFF4F22
S1130B1001900D928A95E1F7CE0181960E944904D5
S1130B2088E0FE013196D80101900D928A95E1F793
S1130B3088E0FE013996D801189601900D928A95A5
S1130B40E1F788E0FE017196D801509601900D926C
S1130B508A95E1F788E0FE017996D80158960190CC
S1130B600D928A95E1F788E0FE01B196D80190963E
S1130B7001900D928A95E1F788E0FE01B996D801BB
S1130B80989601900D928A95E1F788E0FE01F1961E
S1130B90D801D09601900D928A95E1F788E0FE0184
S1130BA0F996D801D89601900D928A95E1F70FB67F
S1130BB0F894DEBF0FBECDBFC801C05CDF4F0FB6D7
S1130BC0F894DEBF0FBECDBFDF91CF911F910F917F
S1130BD008954F925F926F927F928F929F92AF92FD
S1130BE0BF92CF92DF92EF92FF920F931F93CF9316
S1130BF0DF93CDB7DEB7A0970FB6F894DEBF0FBE74
S1130C00CDBF29873A874B875C876D877E878F871F
S1130C10988BA98ABA8ACB8ADC8AED8AFE8A0F8BE2
S1130C20188F89849A84AB84BC848D859E85AF8516
S1130C30B889898F9A8FAB8FBC8F49885A886B8803
S1130C407C88CD88DE88EF88F88CA5019401C301E7
S1130C50B2010E944C0D6D8F7E8F8F8F98A3298DCA
S1130C603A8D4B8D5C8DC701B6010E944C0D9B01E2
S1130C70AC016D8D7E8D8F8D98A10E94B00B162FC7
S1130C80462F572F682F792F49835A836B837C8390
S1130C90A5019401C701B6010E944C0D6B017C01B2
S1130CA0298D3A8D4B8D5C8DC301B2010E944C0D90
S1130CB09B01AC01C701B6010E94B10BE62F462F80
S1130CC0572F682F792F4D835E836F837887212F69
S1130CD03A814B815C816E2F7E818F819885A096AD
S1130CE00FB6F894DEBF0FBECDBFDF91CF911F9139
S1130CF00F91FF90EF90DF90CF90BF90AF909F90B7
S1130D008F907F906F905F904F9008956F927F9235
S1130D108F929F92AF92BF92CF92DF92EF92FF9207
S1130D200F931F93CF93DF93CDB7DEB768970FB6BA
S1130D30F894DEBF0FBECDBF3C0189869A86AB8690
S1130D40BC86CD86DE86EF86F88A098B1A8B2B8BC0
S1130D503C8B4D8B5E8B6F8B788F19821A821B8232
S1130D601C8280E090E0A0E8BFEB8D839E83AF837C
S1130D70B88788E0FE013996D30101900D928A95D7
S1130D80E1F7A988BA88CB88DC88ED88FE880F89CA
S1130D90188D29813A814B815C816D817E818F819F
S1130DA098850E94E905F30120873187428753879C
S1130DB06487758786879787C30168960FB6F8940A
S1130DC0DEBF0FBECDBFDF91CF911F910F91FF907A
S1130DD0EF90DF90CF90BF90AF909F908F907F90D7
S1130DE06F9008958F929F92AF92BF92CF92DF92AD
S1130DF0EF92FF920F931F93CF93DF93CDB7DEB79C
S1130E00A0970FB6F894DEBF0FBECDBF4C0180E0B3
S1130E1090E0A0E8BFE389839A83AB83BC831D82FF
S1130E201E821F82188683EF94E0A5E3BFE38987BF
S1130E309A87AB87BC8783EF94E0A5E3BFEB8D87EC
S1130E409E87AF87B88B198A1A8A1B8A1C8A40E04E
S1130E5050E060E87FEB4D8B5E8B6F8B788F898FD2
S1130E609A8FAB8FBC8F8D8F9E8FAF8FB8A3A12C21
S1130E70BA80CB80DC80E12CFE800F8118852FA501
S1130E8038A949A95AA96BA97CA98DA99EA90E9430
S1130E90E905F4012083318342835383648375839A
S1130EA086839783A984BA84CB84DC84ED84FE840E
S1130EB00F8518892FA938AD49AD5AAD6BAD7CADFE
S1130EC08DAD9EAD0E94E905F401208731874287EC
S1130ED053876487758786879787A988BA88CB885C
S1130EE0DC88ED88FE880F89188D2FAD21963FADE3
S1130EF0219722964FAD229723965FAD2397249690
S1130F006FAD249725967FAD259726968FAD2697AE
S1130F1027969FAD27970E94E905F401208B318B1A
S1130F20428B538B648B758B868B978BA98CBA8C75
S1130F30CB8CDC8CED8CFE8C0F8D18A128962FADFC
S1130F40289729963FAD29972A964FAD2A972B9635
S1130F505FAD2B972C966FAD2C972D967FAD2D976B
S1130F602E968FAD2E972F969FAD2F970E94E90551
S1130F70F401208F318F428F538F648F758F868F4A
S1130F80978FC401A0960FB6F894DEBF0FBECDBFF5
S1130F90DF91CF911F910F91FF90EF90DF90CF9051
S1130FA0BF90AF909F908F9008952F923F924F9251
S1130FB05F926F927F928F929F92AF92BF92CF92E5
S1130FC0DF92EF92FF920F931F93CF93DF9300D0A2
S1130FD000D0CDB7DEB76D968CAD9DADAEADBFADD7
S1130FE06D9789839A83AB83BC8320E030E040E033
S1130FF05FE3698D7A8D8B8D9C8D0E944C0D6B0106
S11310007C01DE0159961D0101E010E0F1014084EC
S113101051846284738484849584A684B7842FE67F
S113102032E143E85AE3C301B2010E94470D1816A6
S113103054F02FE632E143E85AEBC301B2010E94B7
S11310401D0C8823DCF4B801012E000C880B990BCD
S11310500E94580C29813A814B815C810E944C0D7D
S11310600E94220CA30192010E944C0D9B01AC0131
S1131070C701B6010E94B10B6B017C012FE632E17E
S113108043E85AE3C501B4010E94470D181654F011
S11310902FE632E143E85AEBC501B4010E941D0C6E
S11310A08823DCF4B801012E000C880B990B0E94F4
S11310B0580C29813A814B815C810E944C0D0E941D
S11310C0B90DA50194010E944C0D9B01AC01C7010F
S11310D0B6010E94B10B6B017C010F5F1F4FF8E05A
S11310E02F0E311C0830110509F090CFC701B6014D
S11310F00F900F900F900F90DF91CF911F910F9150
S1131100FF90EF90DF90CF90BF90AF909F908F9023
S11311107F906F905F904F903F902F9008956F92C3
S11311207F928F929F92AF92BF92CF92DF92EF9273
S1131130FF920F931F93CF93DF93CDB7DEB7C05DBC
S1131140D1090FB6F894DEBF0FBECDBF3C018B01B1
S1131150CB010E9462009E012F5C3F4FAE014F5DA8
S11311605F4FBE016F5E7F4FCE0101960E940A0160
S113117089809A80AB80BC80CD80DE80EF80F8844B
S113118009851A852B853C854D855E856F85788913
S1131190CE018F539F4F0E94800080E1FE01EF53E8
S11311A0FF4FDE01119601900D928A95E1F789882F
S11311B09A88AB88BC88CD88DE88EF88F88C098D46
S11311C01A8D2B8D3C8D4D8D5E8D6F8D78A1CE014A
S11311D08F539F4F0E94800080E1FE01EF53FF4F29
S11311E0DE01519601900D928A95E1F789A09AA0AB
S11311F0ABA0BCA0CDA0DEA0EFA0F8A409A51AA5C1
S11312002BA53CA54DA55EA56FA578A9CE018F534E
S11312109F4F0E94800080E1FE01EF53FF4FDE01EB
S1131220919601900D928A95E1F789A89AA8ABA8A6
S1131230BCA8CDA8DEA8EFA8F8AC09AD1AAD2BADBB
S11312403CAD4DAD5EAD6FAD21967FAD2197CE0126
S11312508F539F4F0E94800080E1FE01EF53FF4FA8
S1131260DE01D19601900D928A95E1F789889A88DA
S1131270AB88BC88CD88DE88EF88F88C098D1A8D00
S11312802B8D3C8D4D8D5E8D6F8D78A1CE018F574A
S11312909F4F0E94860689A89AA8ABA8BCA8CDA88F
S11312A0DEA8EFA8F8AC09AD1AAD2BAD3CAD4DAD41
S11312B05EAD6FAD21967FAD2197CE018F569F4FC6
S11312C00E9486068DB79EB740970FB6F8949EBFCE
S11312D00FBE8DBFADB7BEB7119680E1FE01EF57CB
S11312E0FF4F01900D928A95E1F789809A80AB8037
S11312F0BC80CD80DE80EF80F88409851A852B853B
S11313003C854D855E856F857889CE018F5B9F4FC7
S11313100E9477038DB79EB740970FB6F8949EBF8F
S11313200FBE8DBFADB7BEB7119680E1FE01EF567B
S1131330FF4F01900D928A95E1F789A09AA0ABA086
S1131340BCA0CDA0DEA0EFA0F8A409A51AA52BA5EA
S11313503CA54DA55EA56FA578A9CE018F599F4FD9
S11313600E9477038DB79EB780960FB6F894DEBFC0
S11313700FBECDBF80970FB6F8949EBF0FBE8DBF32
S1131380ADB7BEB7119680E2FE01EF59FF4F019051
S11313900D928A95E1F7CE018F559F4F0E94F20678
S11313A08DB79EB780960FB6F894DEBF0FBECDBF43
S11313B080970FB6F8949EBF0FBE8DBFADB7BEB772
S11313C0119680E2FE01EF55FF4F01900D928A9530
S11313D0E1F78DB79EB780970FB6F8949EBF0FBE06
S11313E08DBFADB7BEB7119680E2FE01EF5BFF4F34
S11313F001900D928A95E1F7C3010E9427050FB66B
S1131400F894DEBF0FBECDBFC301C053DF4F0FB68C
S1131410F894DEBF0FBECDBFDF91CF911F910F9126
S1131420FF90EF90DF90CF90BF90AF909F908F9000
S11314307F906F900895249A0895F894E6E2F1E07D
S11314406EE671E048E0DF0112979C9111963C91A1
S11314508081242F3323B4F42C9A00000000000070
S11314600000000000000000000000000000000078
S113147000002C98000000000000000000000000A4
S1131480000012C02C9A00000000000000002C98FC
S11314900000000000000000000000000000000048
S11314A00000000000000000330F215099F6242FA3
S11314B09923B4F42C9A00000000000000000000FE
S11314C000000000000000000000000000002C9854
S11314D0000000000000000000000000000012C036
S11314E02C9A00000000000000002C98000000006E
S11314F000000000000000000000000000000000E8
S113150000000000990F215099F6942F8823B4F419
S11315102C9A000000000000000000000000000001
S1131520000000000000000000002C9800000000F3
S11315300000000000000000000012C02C9A00000F
S11315400000000000002C980000000000000000D3
S11315500000000000000000000000000000000087
S1131560880F915099F63396E617F70709F06BCF79
S1131570789480E38A95F1F70895E6E2F1E02EE6A7
S113158031E0DF0112976C9311967C93808333963C
S1131590E217F307B1F708958F929F92AF92BF922B
S11315A0DF92EF92FF920F931F93CF93DF93CDB708
S11315B0DEB7C054D1090FB6F894DEBF0FBECDBF5D
S11315C0BC01CE0101960E948F080F2EF4E2EF2E8B
S11315D0F1E0FF2EF02D00E010E06894DD24D6F851
S11315E0B801012E000C880B990B0E94580C25E5BC
S11315F035E545E95EE30E944C0D9F938F937F93FD
S11316006F932DB73EB7205431090FB6F8943EBFFF
S11316100FBE2DBFADB7BEB71196FE0131968D2D0D
S113162001900D928A95E1F70E94D5070FB6F894C0
S1131630DEBF0FBECDBF4B015C0120E030E0A9014D
S11316400E94470D18163CF4C501B4010E94270CF2
S1131650F701608302C0F70110820F5F1F4FF3E0B0
S1131660EF0EF11C0831110509F0BACFC05CDF4F51
S11316700FB6F894DEBF0FBECDBFDF91CF911F919F
S11316800F91FF90EF90DF90BF90AF909F908F905D
S11316900895CF93DF93CDB7DEB7A0970FB6F89434
S11316A0DEBF0FBECDBF0E941B0A80E2E4E0F1E082
S11316B0DE01119601900D928A95E1F76AE070E0DF
S11316C080E00E94BD0ACE0101960E94CC0A0E94CD
S11316D01D0A6E012DE1C20ED11C0F2EF8E2EF2E71
S11316E0F12CF02D8E010F5F1F4F0E947E0EB7016B
S11316F00E940A0EBC01665F7F4F072E000C880B08
S1131700990B0E94580CF801619371938193919302
S11317108F01EC15FD0549F7298D3A8D4B8D5C8DB4
S113172069817A818B819C810E94B10B20E030E039
S113173040E05FE30E944C0D6D8F7E8F8F8F98A3E6
S1131740FFEF24E38CE0F15020408040E1F700C03B
S11317500000CE0101960E94CC0A0E941D0AC2CF4D
S11317605058BB27AA270E94C80B0C94F90C0E945E
S1131770C00C38F00E94C70C20F039F49F3F19F4D4
S113178026F40C94BD0C0EF4E095E7FB0C94B70C16
S1131790E92F0E941E0D58F3BA17620773078407D6
S11317A0950720F079F4A6F50C94400D0EF4E0951D
S11317B00B2EBA2FA02D0B01B90190010C01CA0107
S11317C0A0011124FF27591B99F0593F50F4503EB2
S11317D068F11A16F040A22F232F342F4427585FA4
S11317E0F3CF469537952795A795F0405395C9F7BC
S11317F07EF41F16BA0B620B730B840BBAF0915074
S1131800A1F0FF0FBB1F661F771F881FC2F70EC012
S1131810BA0F621F731F841F48F4879577956795E5
S1131820B795F7959E3F08F0B0CF9395880F08F0D1
S11318309927EE0F9795879508950E94930C08F4C5
S113184081E008950E94D00CE3950C940A0D0E9447
S1131850260D88F09F5798F0B92F9927B751B0F00B
S1131860E1F0660F771F881F991F1AF0BA95C9F720
S113187014C0B13091F00E94400DB1E008950C9471
S1131880400D672F782F8827B85F39F0B93FCCF324
S1131890869577956795B395D9F73EF4909580959D
S11318A0709561957F4F8F4F9F4F0895E89409C0BD
S11318B097FB3EF490958095709561957F4F8F4F7F
S11318C09F4F9923A9F0F92F96E9BB279395F69595
S11318D0879577956795B795F111F8CFFAF4BB0F13
S11318E011F460FF1BC06F5F7F4F8F4F9F4F16C077
S11318F0882311F096E911C0772321F09EE8872F01
S1131900762F05C0662371F096E8862F70E060E0BC
S11319102AF09A95660F771F881FDAF7880F969535
S1131920879597F90895990F0008550FAA0BE0E8D9
S1131930FEEF16161706E807F907C0F0121613068D
S1131940E407F50798F0621B730B840B950B39F4CD
S11319500A2661F0232B242B252B21F408950A2633
S113196009F4A140A6958FEF811D811D089597F973
S11319709F6780E870E060E008959FEF80EC089531
S113198000240A941616170618060906089500245A
S11319900A94121613061406050608950C94BD0C39
S11319A00E94260DD8F3E894E0E0BB279F57F0F09F
S11319B02AED3FE049EC06C0EE0FBB0F661F771F10
S11319C0881F28F0B23A62077307840728F0B25AD6
S11319D0620B730B840BE3959A9572F7803830F49D
S11319E09A95BB0F661F771F881FD2F790480C94F7
S11319F0C30D092E0394000C11F4882352F0BB0F7D
S1131A0040F4BF2B11F460FF04C06F5F7F4F8F4F12
S1131A109F4F0895EF93E0FF07C0A2EA2AED3FE04D
S1131A2049EC5FEB0E94C80B0E94F90C0F900394E1
S1131A3001FC9058E8E6F0E00C94CF0D57FD905867
S1131A40440F551F59F05F3F71F04795880F97FB7E
S1131A50991F61F09F3F79F0879508951216130638
S1131A601406551FF2CF4695F1DF08C01616170667
S1131A701806991FF1CF869571056105089408959C
S1131A80E894BB2766277727CB0197F908950E942E
S1131A90930C08F48FEF08950E945F0D0C94F90CD9
S1131AA00E94C00C38F00E94C70C20F0952311F05E
S1131AB00C94B70C0C94BD0C11240C94410D0E9491
S1131AC01E0D70F3959FC1F3950F50E0551F629F53
S1131AD0F001729FBB27F00DB11D639FAA27F00D83
S1131AE0B11DAA1F649F6627B00DA11D661F829FAA
S1131AF02227B00DA11D621F739FB00DA11D621F8F
S1131B00839FA00D611D221F749F3327A00D611DAB
S1131B10231F849F600D211D822F762F6A2F11248D
S1131B209F5750409AF0F1F088234AF0EE0FFF1FC0
S1131B30BB1F661F771F881F91505040A9F79E3F17
S1131B40510580F00C94B70C0C94410D5F3FE4F305
S1131B50983ED4F3869577956795B795F795E7956D
S1131B609F5FC1F7FE2B880F911D9695879597F976
S1131B7008959F930E94D00C0F9007FCEE5F0C9485
S1131B800A0D9F3F31F0915020F487957795679522
S1131B90B795880F911D9695879597F908959F930A
S1131BA08F937F936F93FF93EF939B01AC010E94FC
S1131BB04C0DEF91FF910E94E30D2F913F914F91B6
S1131BC05F910C944C0DDF93CF931F930F93FF926F
S1131BD0EF92DF927B018C01689406C0DA2EEF014C
S1131BE00E945F0DFE01E894A591259135914591E0
S1131BF05591A6F3EF010E94C80BFE019701A801BD
S1131C00DA9469F7DF90EF90FF900F911F91CF91D5
S1131C10DF91089597FB072E16F4009407D077FD03
S1131C2009D00E941E0E07FC05D03EF490958195C4
S1131C309F4F0895709561957F4F0895AA1BBB1B14
S1131C4051E107C0AA1FBB1FA617B70710F0A61BB8
S1131C50B70B881F991F5A95A9F780959095BC01D9
S1131C60CD0108958F929F92AF92BF92CF92DF924F
S1131C70EF92FF92CF93DF93EC01688179818A819F
S1131C809B81611571058105910521F464E279ED6B
S1131C908BE597E02DE133EF41E050E00E948E0E9A
S1131CA049015A019B01AC01A7EAB1E40E94AD0EBF
S1131CB06B017C01ACEEB4EFA50194010E94BB0E54
S1131CC0DC01CB018C0D9D1DAE1DBF1DB7FF03C0F4
S1131CD00197A109B04888839983AA83BB839F771E
S1131CE0DF91CF91FF90EF90DF90CF90BF90AF90B6
S1131CF09F908F9008950E94320E089580E091E0A5
S1131D000E94320E0895A0E0B0E080930001909309
S1131D100101A0930201B09303010895052E97FBDE
S1131D201EF400940E94A50E57FD07D00E94C00E19
S1131D3007FC03D04EF40C94A50E509540953095B5
S1131D4021953F4F4F4F5F4F089590958095709523
S1131D5061957F4F8F4F9F4F08950E94E20EA59F7C
S1131D60900DB49F900DA49F800D911D1124089592
S1131D70B7FF0C94AD0E0E94AD0E821B930B089519
S1131D80A1E21A2EAA1BBB1BFD010DC0AA1FBB1F7B
S1131D90EE1FFF1FA217B307E407F50720F0A21BED
S1131DA0B30BE40BF50B661F771F881F991F1A945A
S1131DB069F760957095809590959B01AC01BD0184
S1131DC0CF010895A29FB001B39FC001A39F700DDE
S1131DD0811D1124911DB29F700D811D1124911D2F
S1091DE00895F894FFCF02
S1131DE601000000000000000000A0410000F041D6
S1131DF600004842000020410000A0420000A0412B
S1071E06000048424A
S9030000FC
