S00D00004E656F5F312E7372656365
S11300000C9434000C9451000C9451000C94510045
S11300100C9451000C9451000C9451000C94510018
S11300200C9451000C9451000C9451000C94510008
S11300300C9451000C9451000C9451000C945100F8
S11300400C9451000C9451000C9451000C945100E8
S11300500C9451000C9451000C9451000C945100D8
S11300600C9451000C94510011241FBECFEFD8E022
S1130070DEBFCDBF11E0A0E0B1E0EEE9F4E002C0E4
S113008005900D92A231B107D9F721E0A2E1B1E0C8
S113009001C01D92AA35B207E1F70E9420010C9419
S11300A04D020C940000249A0895F894E4E1F1E0E0
S11300B06CE571E048E0DF0112979C9111963C9148
S11300C08081242F3323B4F42C9A00000000000014
S11300D0000000000000000000000000000000001C
S11300E000002C9800000000000000000000000048
S11300F0000012C02C9A00000000000000002C98A0
S113010000000000000000000000000000000000EB
S11301100000000000000000330F215099F6242F46
S11301209923B4F42C9A00000000000000000000A1
S113013000000000000000000000000000002C98F7
S1130140000000000000000000000000000012C0D9
S11301502C9A00000000000000002C980000000011
S1130160000000000000000000000000000000008B
S113017000000000990F215099F6942F8823B4F4BD
S11301802C9A0000000000000000000000000000A5
S1130190000000000000000000002C980000000097
S11301A00000000000000000000012C02C9A0000B3
S11301B00000000000002C98000000000000000077
S11301C0000000000000000000000000000000002B
S11301D0880F915099F63396E617F70709F06BCF1D
S11301E0789480E38A95F1F70895E4E1F1E02CE551
S11301F031E0DF0112976C9311967C9380833396E0
S1130200E217F307B1F70895FC01A2E1B1E08081A0
S11302108C9382811C968C931C97848158968C9322
S11302205897868194968C93949780859D968C9309
S11302309D978285D9968C938485809357010895E0
S1130240CF93DF93CDB7DEB72E970FB6F894DEBF0A
S11302500FBECDBF0E9453008EE0E4E0F1E0DE016A
S1130260119601900D928A95E1F76AE070E080E0C2
S11302700E94F500CE0101960E9404016E012FE058
S1130280C20ED11C0F2EFAE0EF2EF12CF02D8E01B0
S11302900F5F1F4F0E94DA01B7010E946601F80147
S11302A0819391938F01EC15FD05A1F7CE01019681
S11302B00E940401FFEF29E688E1F15020408040CC
S11302C0E1F700C000000E945500E1CF97FB072E24
S11302D016F4009407D077FD09D00E947A0107FC38
S11302E005D03EF4909581959F4F08957095619542
S11302F07F4F0895AA1BBB1B51E107C0AA1FBB1F58
S1130300A617B70710F0A61BB70B881F991F5A959D
S1130310A9F780959095BC01CD0108958F929F9285
S1130320AF92BF92CF92DF92EF92FF92CF93DF937F
S1130330EC01688179818A819B8161157105810550
S1130340910521F464E279ED8BE597E02DE133EF3B
S113035041E050E00E94EA0149015A019B01AC01CD
S1130360A7EAB1E40E9409026B017C01ACEEB4EF90
S1130370A50194010E941702DC01CB018C0D9D1D87
S1130380AE1DBF1DB7FF03C00197A109B048888304
S11303909983AA83BB839F77DF91CF91FF90EF90DE
S11303A0DF90CF90BF90AF909F908F9008950E9460
S11303B08E01089580E091E00E948E010895A0E0EE
S11303C0B0E08093000190930101A0930201B093E7
S11303D003010895052E97FB1EF400940E94010268
S11303E057FD07D00E941C0207FC03D04EF40C9466
S11303F0010250954095309521953F4F4F4F5F4FE7
S1130400089590958095709561957F4F8F4F9F4F7C
S113041008950E943E02A59F900DB49F900DA49F45
S1130420800D911D11240895B7FF0C9409020E94B8
S11304300902821B930B0895A1E21A2EAA1BBB1B6F
S1130440FD010DC0AA1FBB1FEE1FFF1FA217B3079C
S1130450E407F50720F0A21BB30BE40BF50B661FB2
S1130460771F881F991F1A9469F760957095809576
S113047090959B01AC01BD01CF010895A29FB001ED
S1130480B39FC001A39F700D811D1124911DB29FC4
S1110490700D811D1124911D0895F894FFCF65
S113049E0100000001000500030002000600000038
S10504AE040044
S9030000FC
